:020000040808EA
:1000000000000808AC5B0808000006000A000501B3
:080010000402DB070000000000
:04001800C44A0808C6
:1000200008B5024B1B689B6D019308BD2C000608A8
:1000300009480A4908B5884205D0094A824202D0D7
:10004000121A04F01FFC0748074A0021121A04F094
:1000500041FC064808BD00BF00000020845A080883
:10006000FC00002000010020F8070020F807002015
:1000700070B503F009FB0025054E064CA41BA4082F
:10008000A54200D170BD56F8043B98470135F7E70B
:100090005C5208088052080800F06EBE08B500F0F7
:1000A000ABFCBDE8084003F0B1BA02F01FB802F0A3
:1000B0001DB802F023B8000000210C2008B5024A48
:1000C00001F0F6FEFEE700BF111C08080078B0FA48
:1000D00080F0400970470123037070470122014BF3
:1000E0001A707047050200200122014B1A707047F8
:1000F000AC0100200122014B1A707047AD010020B5
:1001000008B5044902F0F0FE18B105220120024BA7
:100110001A7008BD1C4B0808EC01002010B50446FD
:10012000024B036001F0B8FA204610BDE44D080808
:1001300010B50446FFF7F2FF2046382103F0F3FB29
:10014000204610BD10B50446024B036001F0A0F834
:10015000204610BDC84D080810B50446FFF7F2FF51
:100160002046102103F0DFFB204610BD08B50549ED
:1001700002F0BAFE20B10420012103F02EFB012081
:1001800008BD00BF1C4B080810B50446006808B144
:1001900001F0B4FF204610BD08B501F017FF20B1F3
:1001A000BDE80840002001F031BF08BD08B50020BF
:1001B00001F034FF28B101F009FF80F00100C0B266
:1001C00008BD0120FCE7002001F03ABD37B59DF8DD
:1001D000185004688DF800308DF804503C23E46812
:1001E000A04703B030BD000070B51920A2B003F0E5
:1001F0000DFB104E104C002814BF254635461B2021
:1002000003F004FB002808BF34462B4680210B4A2C
:10021000009402A801F08AFF00238DF80030084BFB
:1002200008491B7802AA0848FFF7D0FF012022B036
:1002300070BD00BF234B08081E4B0808274B080859
:10024000580100204D4B0808B001002013B50C46A2
:1002500051B9174B8DF800101B78164A16491748EC
:10026000FFF7B4FF02B010BD084604F0F9FAC83831
:10027000012815D8124BDB784BB100238DF80030E4
:100280000B4B104A1B7810490C48FFF79FFF0021C9
:1002900007200E4B197002B0BDE8104003F09DBA64
:1002A00000238DF80030024B22461B78D6E700BFB2
:1002B00058010020544B08085C4B0808B00100208E
:1002C000F0010020694B08087B4B08089B010020C7
:1002D00037B51249054602F007FE044678B10124FD
:1002E0000F4B104ADC7000238DF800300E4B1B784A
:1002F0000E490F48FFF76AFF012003B030BD2846C2
:100300000C4902F0F1FD0028F7D0054B0A4ADC70D9
:10031000054B8DF800401B78EAE700BF1C4B08082E
:10032000F0010020814B080858010020A44B080868
:10033000B0010020924B0808944B08080000000010
:100340002DE9F047C8B08046FFF726FFFFF73BFFD7
:100350004FF0000A814647F22F560027FFF733FF80
:10036000B0EB090461EB0A05AF4208BFA64205D312
:10037000FFF71CFF10B901F019FEEFE7FFF716FFBA
:100380000A22D8F8000003A904F092FB00F10C0344
:10039000DBB2182B46D845B2284603F0EDFF012406
:1003A000254B986002F0B8FE244B1C7002F08EFFC3
:1003B000064602F052FF301A03F010FC1CA3D3E9EA
:1003C000002303F09FFD1E4ACDE900010A211D48CC
:1003D00001F0ACFE01F0FAFD10B300262B464FF4FD
:1003E0008071194A194D08A801F0A0FE8DF800602F
:1003F00017492B7808AA1748FFF7E8FE02F02DFFEF
:100400000246C31704A802F0D3FE8DF800602B78D3
:10041000049A0F490F48FFF7D9FE04A802F0EDFC3B
:10042000204600E0002048B0BDE8F087AFF3008030
:10043000000000000020AC40F00100200402002079
:10044000A94B080890010020B34B08085801002070
:10045000C74B0808B0010020F8B5364B1A7802F0F7
:10046000FF04002A50D00022334D1A702B78334EEF
:1004700013F0010FBFF35B8F09D12846FFF726FE6B
:1004800028B101F0CDFB30602846FFF724FE01F0D3
:10049000C7FB33682A4DC01A43F6982398420AD9FD
:1004A000284B1B78022B06D100242C6001F0B8FBEE
:1004B00030602046F8BD2B688BB9224A117881B98B
:1004C00002230127137020491022204804F063FA08
:1004D0002F6001F0A5FB1E4B30601F70E9E7042B75
:1004E00003DC013300242B60E3E70125154E1022C5
:1004F00018491648357004F04EFA1920144B35741B
:100500001D7002F03DFBD4E7134B1A7802F0FF0494
:10051000002ACED0002201250A4E1A700F4910225F
:100520000A48757004F037FA094B1B2035741D70AA
:10053000E7E700BFAC01002050010020600100206F
:100540005C01002078010020CC4B0808000000204E
:100550009A010020D54B0808AD010020DF4B0808A8
:1005600030B5174D99B004AC0FCD0FC40FCD0FC4EB
:1005700095E8030084E8030012490EA801F060FE2C
:100580000EA801F0B0FE04460EA801F0B5FE054627
:100590000EA801F0DBFE18AB03EB840403F030FB84
:1005A000CDE90201284603F02BFBCDE90001064A04
:1005B000402154F8503C054801F0B8FD19B030BD59
:1005C000044E080810020020E74B08080401002030
:1005D00008B50A2003F02DF903F000FB14A3D3E9BA
:1005E000002303F065FB03F0BDFD4FF0665103F0FF
:1005F00017FF03F005FB00220F4B03F0A1F90022C7
:100600000E4B03F055FB03F065FD03F0E7FA002203
:100610000B4B03F04DFB00220A4B03F073FC00224E
:10062000094B03F08FF903F055FD084B986008BDA6
:100630006666666666660A400000E03F0000594054
:1006400000002240000014400000404078010020DB
:1006500000222DE9F0411C4BC6B01146586801F04C
:100660000DFD08B1FFF77CFFFFF7B2FF174A184BEB
:1006700014785578D3F80480D2E9026702F0EDFDD2
:100680002346CDE903804FF48071CDE90167114A1B
:10069000009506A801F04AFD00238DF800300E4BAE
:1006A0000E4906AA1B780E48FFF790FD01220D4B5C
:1006B0001A7002F0E3FD0C4B186001F0B1FA0B4B1D
:1006C000186046B0BDE8F0811002002078010020DB
:1006D000F0010020004C080858010020544C080884
:1006E000B00100209B0100208C01002008020020A6
:1006F00008B50121062003F070F80021062003F060
:100700006CF80022014B1A7008BD00BF05020020E2
:100710002DE9F84F00231D481A461946406801F09C
:10072000B5FC4FF4967401F049FC4FF0000B40F219
:10073000E7384FF00009DFF860A0FFF744FD0546F9
:10074000FFF741FD461B61EB0B07B94508BFB045FC
:1007500005D301F03BFC10B901F028FCF0E701F0F3
:1007600035FC20B101F032FC50B9BDE8F88F01F042
:1007700057FACAF8000001F019FC013CDDD1F1E79D
:100780000123034A9370034A1370EEE7100200201E
:10079000F001002004020020D407002010B501F071
:1007A0003FFA094C2368C01AB0F57A7F0BD90720AD
:1007B00003F02CF8B0FA80F10720490903F00DF896
:1007C00001F02EFA206010BD740100202DE9F743DE
:1007D0000024154B8DF80040144A15491B78154824
:1007E000FFF7F4FC144B47F22F58DC70FFF7D4FCF2
:1007F000FFF7E9FC4FF000090546FFF7E4FC461B54
:1008000061EB0407B94508BFB04505D3FFF7CEFC3F
:1008100010B901F0CBFBF0E7FFF7C8FC0122074B52
:100820001A7003B0BDE8F08358010020664C080838
:100830006E4C0808B0010020F001002004020020E6
:1008400007B501F0C3FB48B100238DF800300C4B15
:100850000C4A1B780C490D48FFF7B8FC00230C4AE2
:100860000121D3700B4B0C4893604FF07E53D36043
:100870001423117003B05DF804EB00F0C4BD00BF99
:10088000580100207C4C0808A44B0808B001002047
:10089000F00100200000A0C09C01002038B5154CDC
:1008A000E378012B84BF0023E3706368FF2B01D939
:1008B00000236360A5681049284603F04FFF20B964
:1008C00028460E4903F068FF08B10D4BA360E568A8
:1008D0000021284603F042FF28B94FF08041284606
:1008E00003F05AFF10B14FF07E53E3600122054B35
:1008F0001A7038BDF0010020000040C100004041E6
:100900000000A0C0040200200022054BD9681A8014
:10091000FE291A7488BFDA600122024B1A707047F0
:10092000780100209A0100200E2330B5104D1149A6
:100930002A78114C03FB021220788DB003FB0013C0
:10094000009228210D4A02A801F0F0FB2B782370B9
:100950000B4BDB784BB100238DF80030094B0A4973
:100960001B780A4802AAFFF731FC0DB030BD00BF6A
:10097000EC01002024000020AE010020944C080867
:10098000F001002058010020A24C0808B00100200E
:10099000002330B585B001A8CDE901338DF80C30C6
:1009A00001F09FFD01F03CF943F69725044601F064
:1009B0000DFB40B101F034F9001BA84203D86420BC
:1009C00001F0D4FBF3E7002147F230520846084B10
:1009D00001F0B6F84FF47A7001F0C8FB054B0A221B
:1009E00001211B6801A802F0FBFA05B030BD00BF71
:1009F000B34C0808540100202DE9F743A34CA44E42
:100A00002378A44D013B052B4BD8DFE813F0F7000A
:100A1000060090001F00B700D4009F4B1B78022BEC
:100A200001D0FFF781FF9D4B1B780BB1042323708E
:100A30009B4B1B780BB10323237002F01FFC994BD7
:100A40001B6898422DD0052323702AE0924B1B7817
:100A5000042B04D00022944B1A60FFF765FF01F0CD
:100A6000DFF8924F3B68B846C01A642812D996F84E
:100A70000090B9F1000F0DD101F0D2F838601920C3
:100A800002F0C4FE884B68B3844A82F800900222C8
:100A900022702AE001F0C4F8D8F80030C01A3228D9
:100AA0002ED8834B1B780BB1FFF722FE337C0BB1A2
:100AB000FFF774FE2B783BB1142301217D4A7E4859
:100AC00000F0A1FC00232B707C4C23783BB1142355
:100AD00050216F4A784800F096FC0023237003B041
:100AE000BDE8F0831A6801321A601B68642BD8DDF8
:100AF000FFF7B2FC0028A6D1684B18700223A3E7C9
:100B00003778022FCDD101F08BF8C8F800001920FA
:100B100002F07CFE644B28B91A6801321A601B6827
:100B20000A2BE4E700215D4A27701170F7E75A4B62
:100B30001B78032B04D00022614B1A60FFF7F4FEF0
:100B400001F06EF85F4F3B68C01A6428A9D901F024
:100B500067F838601B2002F059FE594B40B91A68FB
:100B600001321A601B68642B9BDDFFF775FC6AE796
:100B700000214B4A117002222270F3E7464B1B788A
:100B8000052B01D0FFF7D0FE4A4B9B780BB9FFF73E
:100B9000BFFD01F01BFA40B102F070FB08B9FFF78E
:100BA00015FEFFF755FD06234EE701F039F8464BD9
:100BB0001860012348E7384B1B78062B01D0FFF75C
:100BC000B3FE424B1B78002B98D001F029F8404B24
:100BD0001B68C01A3F4B1B6898427FF662AF01F05A
:100BE0001FF8394B3C4A186000238DF800303B4B0E
:100BF0003B491B783B48FFF7E9FADAE7264B1B78BD
:100C0000012B01D0FFF790FE01F00AF82E4B364A77
:100C10001B68126813448342BFF443AF254C6368DA
:100C2000032B13DC01F0D2F948B100238DF800301A
:100C30002A4B2E4A1B782E492A48FFF7C7FA4FF451
:100C4000FA6001F093FA02F0C8F92AE702F005FB16
:100C50002369C01AB0F5E15F4ED901F0B7F948B188
:100C600000238DF800301D4B224A1B7820491D4877
:100C7000FFF7ACFA4FF4FA6001F078FA0023012193
:100C800004206360297002F0A8FD0AE7EC0100204F
:100C90007801002004020020AE010020AC010020F9
:100CA000AD0100208C010020640100206C010020B7
:100CB00005020020F00100209C0100209A01002084
:100CC0006801002070010020E80100209B01002045
:100CD0000802002088000020BF4C080858010020AE
:100CE000C04C0808B001002020000020D94C0808A2
:100CF0007B4B0808ED4C080801F068F948B1002367
:100D00008DF80030084B094A1B7809490948FFF75C
:100D10005DFA4FF4FA6001F029FA002363600123C1
:100D20002B70FFF735FEBCE658010020074D080880
:100D30007B4B0808B001002038B502F0ABFA05463D
:100D400002F0BCFA044602F0B1FA231F062B0ED9BA
:100D5000E31E082B0DD801382D1A04D50B2C14BF17
:100D60000020012038BD072D03DD032CF7E701200B
:100D7000F8E70020F6E7000030B50024A9B0022112
:100D8000192002F019FD02211B2002F015FD00219F
:100D9000112002F011FD0021052002F00DFD0121BE
:100DA000072002F009FD01211D2002F005FD0121AF
:100DB0001D2002F012FD0121062002F0FDFC0121A0
:100DC000042002F0F9FC0121072002F006FD04A82E
:100DD00001F004F900237D2208A904A802F096F886
:100DE000234622468E49CDE9004408A801F006F9C1
:100DF000234604228B498C4801F0C8F8234602227E
:100E00008A498B4801F0C2F82346022289498A4860
:100E100001F0BCF8234604228849894801F0B6F85D
:100E2000234604228749884801F0B0F8234604226B
:100E30008649874801F0AAF8864A8749874801F021
:100E40003FFB874A8749854801F03AFB864A874934
:100E5000824801F035FB864A8649804801F030FB24
:100E6000854A86497D4801F02BFB854A85497B48A8
:100E700001F026FBFFF74CFC834800F037FA2146CF
:100E8000012381480DF10B0200F072FA9DF80B105E
:100E90007E4D012900F099807B4800F031FA04234F
:100EA00021467B4A784800F0AEFAFFF7C9FC0024DF
:100EB000FFF7F4FC2246214603A8039400F090FEBD
:100EC000039B142B40F0878001226B6801336B6019
:100ED000704B1A70E86802F03DF9FFF72DFF00280B
:100EE00000F0848002F050F9A86802F015F902F0D1
:100EF000EDF9044602F0B1F9201A02F06FFE46A3A4
:100F0000D3E9002302F0FEFF634ACDE900010A2184
:100F1000624801F00BF914235021614A5A4800F04D
:100F200027FAFFF7F1FC02F0A9F95E4B18600520E3
:100F300002F06CFC08B9FFF783FC00244FF0FF338C
:100F4000012259491120009401F0F0FD02224FF0D6
:100F5000FF3356491920009401F0E8FD192002F0F2
:100F600055FC1022002844D05149364803F013FDA7
:100F70001B2002F04BFC1022002842D04C49334881
:100F800003F009FD0023022200931B204FF0FF33E2
:100F9000484901F0CBFD0022474B1146586801F04B
:100FA0006DF808B1FFF7DCFAFFF712FB434B0021A5
:100FB0001A780720012A1CBF02221A7002F00DFCC9
:100FC00004A801F01AFF29B030BD14232A462E4888
:100FD00000F0CEF96BE72246214603A8039400F007
:100FE000FFFD039B8C2B7FF475AF6DE702F0D8F803
:100FF0007AE73349134803F0CEFC0222284B1A70DB
:10100000B6E73049114803F0C6FC0122244B5A7060
:101010001A74C0E7AFF30080000000000020AC406D
:101020004D02080804010020264D0808F4010020A4
:101030002D4D080880010020384D08082C4E080866
:10104000444D0808000000204C4D08081000002006
:10105000534D08085A4D08086D01080895240808E2
:10106000654D0808010108086E4D0808D1020808FE
:101070007B4D080841030808884D0808C910080876
:10108000964D0808E90108089C010020F0010020A5
:10109000344E080804020020A94B080890010020E3
:1010A000780100208C010020DD000808E900080814
:1010B000A44D0808F500080810020020EC010020EB
:1010C000CC4B0808DF4B080870B5C8B0044602F0E6
:1010D000C4F80A22054603A9206803F0E9FCC3B25C
:1010E000022B54D840B203F047F9044602F032F81C
:1010F00001222B4B2046DC602A4B1A7002F080FD47
:10110000294ACDE900014FF4807108A801F00EF8DA
:1011100002F086F828B1FFF70FFE002834D002F065
:1011200033F802F0D3F8044602F097F8201A02F0E0
:1011300055FD19A3D3E9002302F0E4FE1B4ACDE9D3
:1011400000010A211A4800F0F1FF00F03FFFC8B18A
:101150000026184C8DF800601749237808AA174814
:10116000FFF734F82A46EB1704A802F021F88DF8AF
:1011700000602378049A10491048FFF727F804A864
:1011800001F03BFE012003E002F00AF8C9E700206D
:1011900048B070BDAFF30080000000000020AC40FC
:1011A000F001002004020020AD4D0808A94B0808FA
:1011B0009001002058010020C74B0808B001002012
:1011C000F8B500240127254B254D1C60254B264EE4
:1011D0001F7002F08BFA2346224642F6FB1102F002
:1011E0008DFA02F083FA22462346052102F08EFA98
:1011F0001E4B2C60AB60AC80AC71022000F070FE26
:10120000324628461A4902F089FB2146384600F04A
:101210007FFE3946042000F0DBFC02F03FFB154D59
:10122000014623464FF40052284600F055F8124B71
:10123000124C2B6032462846114902F06FFB4FF4E6
:10124000006220460F4900F04DFB0F4B32462360F1
:101250002046BDE8F8400D4902F060BB5401002073
:101260004401002058010020000100200000FFFF81
:10127000890108089C010020C84D0808B001002021
:101280004501080800400240E44D08081D01080817
:10129000704710B50446102102F045FB204610BDF2
:1012A0000368C9B29B6818470EB410B500230168E3
:1012B00020208DB00FAA52F8044BCDE90403CDE9EC
:1012C000004203921E2004AA00F0FAFD0DB0BDE812
:1012D000104003B07047000030B5034DC0E9022351
:1012E000C0E9005130BD00BF6C4E0808406801F0F5
:1012F000CFBB10B50446006801F00DFC204610BDC0
:101300002DE9F041044640688AB0019001F0FAFBF3
:101310001E22002102A8A768002603F0DBFAEFB125
:101320001E2FB84628BF4FF01E0823683146DD68DF
:101330002046434602AAA847054658B90A483246FD
:101340000A49FFF7B1FF01A8FFF7D3FF28460AB00B
:10135000BDE8F081A7EB08074644E0E701A8FFF7E6
:10136000C8FF0125F2E700BFFC020020384E080844
:101370002DE9F743044640680D4616461F46019086
:1013800001F0C0FBA7B1E168606841F0500101F0D5
:10139000B2FB290A6068FFF783FF29466068FFF700
:1013A0007FFF0021606801F0A9FB48B1002400E044
:1013B000012401A8FFF79DFF204603B0BDE8F0839C
:1013C000202FB84628BF4FF02008217B012342463A
:1013D00041F05001606801F078FB02F05FFA0368A9
:1013E0001B6998474045E1DB06EB080902F056FA15
:1013F00003685B69984706F8010B4E45F6D14544F2
:10140000A7EB0807BEE72DE9F74F044640680E46F4
:1014100090461D4601904FF0010901F073FBB9F1B0
:10142000000F2AD04DB3E168606841F0500101F02F
:1014300062FB310A6068FFF733FF31466068FFF7EF
:101440002FFF4746A5F11E0AA6EB080B606817F8A8
:10145000011B0368013D9B6898475545B8460BEB57
:10146000070601D0002DF1D10121606801F046FB93
:101470000028D7D04FF00009D1E701A8FFF739FFC6
:10148000484603B0BDE8F08F2DE9F0430E461546FF
:10149000804640688BB01C46019001F033FBAE42A1
:1014A00029D2264425448CB11E2C274628BF1E274E
:1014B000D8F80030F61BD3F8089031463B4640463A
:1014C00002AAED1BC84748B9002400E0012401A886
:1014D000FFF70FFF20460BB0BDE8F083D8F80030CF
:1014E0002946D3F80C9040463B4602AAC84700283C
:1014F000EAD0E41BD7E7E9D9002CE7D01E2C274619
:1015000028BF1E27D8F800303146D3F8089040464F
:101510003B4602AAC8470028D6D0D8F80030294652
:10152000D3F80C9040463B4602AAC8470028CBD0CF
:101530003E443D44E41BDFE7012A034602D101603B
:1015400000207047022A04BFD1E90001C3E900016D
:10155000F6E7012310B503748368044643B1C068FD
:101560009847012300206374BDE8104000F028BBB9
:1015700000680028F5D083680BB902F0DAF9C36877
:10158000EEE7034610B442681B68541001EB62009A
:10159000D20748BF0A5910BC48BFD358184710B5E6
:1015A0008368044613B1032201469847204610BDC4
:1015B0000123F7B580F829300546083000F0D8FA45
:1015C0000420FEF772FD044698B314201A4902F075
:1015D000ACF930B10023C0E90033C0E90233037431
:1015E00043742060A0B1154B0222C0E902354FF4CC
:1015F00000631349CDE90003124B043000F0A8FA50
:1016000030B923681B7CA3B9012000F0F9FAF8E790
:1016100000232668236066B1376837B13846FFF784
:10162000BEFF1021384602F07EF91421304602F048
:101630007AF96C6003B0F0BD005108084B18080837
:10164000804E08085315080847F23051084AC16017
:10165000026000220749C0E90822C0E904120649D5
:101660004260C16105490285816180F82A20704786
:10167000444F0808B51908088315080839150808E3
:1016800010B50446034B40F8103BFFF788FF204697
:1016900010BD00BF444F080810B50446024B03605C
:1016A000FFF7EEFF204610BD6C4F080810B504464A
:1016B000FFF7F2FF2046382102F035F9204610BD31
:1016C000806800F05DBA806800F062BA10B5044628
:1016D0000068FFF7F8FF204610BD13B504460190DF
:1016E000FFF7EEFFE36ADC88A4B20CB103F1080453
:1016F00001A8FFF7EBFF204602B010BD13B504466A
:101700000190FFF7DDFF94F8283043B9E26A012425
:10171000D38001A8FFF7DAFF204602B010BD0024F5
:10172000F7E713B504460190FFF7CAFFE36A01A883
:10173000DC88FFF7CBFF204602B010BD2DE9F04753
:10174000994690F8293086B004460F4616469DF813
:1017500038A09DF83C8013B903689B689847304BCC
:101760003846002E08BF1E4603F00DF905463046E8
:1017700003F009F905440A35AB071CBF25F0030542
:10178000043533463A46CDE90285CDE9009A25492C
:101790002548FFF789FD238E083BAB4212D2002477
:1017A000204606B0BDE8F087CB88012B36D005A8CF
:1017B000FFF78CFF236820469B6994F82810984710
:1017C0000028ECD020460594FFF77AFFE16A228ECC
:1017D000636B0A44D21AAA42E6D348EA0A0883F89D
:1017E0000480C3F80090636B394603F10808404653
:1017F00003F0A6F8404603F0C6F8013031464044F5
:1018000003F09EF8636BE26A1D4465630124D3888C
:101810000133D38005A8FFF759FFC1E70024F9E79A
:10182000BF4C0808924E08080C020020044608B578
:1018300000F11005A3690BB902F07BF82146284698
:10184000E369984700F08CF9F4E708B5FFF7EEFF7D
:1018500038B501F108040546204603F094F801303C
:101860000444204603F08FF8EB6A01302044C31A89
:1018700013F003031CBFC3F10403C01838BDF7B550
:1018800004460E460190FFF71BFFE76AFB8807F14D
:101890000805E6B1012B22D929462046FFF7D8FFDB
:1018A000054629462046FFF7D3FF228E01463A44DB
:1018B000121AA0EB050602D0284602F0F1FF636B76
:1018C0009B1B6363FB880126013BFB8001E0002B2F
:1018D000E7D101A8FFF7FAFE304603B0F0BD0026BD
:1018E000F7E700002DE9F0470D4604462F4616465F
:1018F000FFF7AAFE154B57F8082B2360144BE5623F
:101900009A429846268617D1AB889BB2B34213D130
:101910004FF0000905EB060A6763EB881FFA89F2AE
:101920009BB29A420ED2616B2046FFF791FF504561
:10193000606309F10109F0D90023C5F800806763ED
:10194000AE80EB802046BDE8F08700BF6C4F0808F2
:1019500061AB9CD110B5D1E90023002186B00446CB
:1019600004910AB9D90705D5CDE902230F4B059398
:101970000F4B04936A4602AB93E8030082E803002E
:1019800094E8030083E8030092E80300049A84E8E3
:101990000300A168A260059A0491E1681846E2601C
:1019A0000591FFF7FCFD204606B010BD8315080821
:1019B0003915080807B5054B694600930023103018
:1019C0000193FFF7C7FF03B05DF804FBFD1908089A
:1019D00013B5044600F024F9636AC01AE36898421C
:1019E00008D3054B69460093002304F110000193CE
:1019F000FFF7B0FF02B010BDFD1908082DE9F04156
:101A000090F82A30044686B0002B64D100F0DEFA4C
:101A1000002860D000F004F9636AC01A40F2F13384
:101A2000984258D9236820465B69984705460028A4
:101A300051D0012300F1080784F82830384602F01D
:101A4000A2FF95F80480461CCDF804802B683E4424
:101A50003A462A492A4800933346FFF725FC2B686B
:101A6000324639468DF8008002A800F05DFE029DE6
:101A70006B781BB9012000F079FBF8E7002000F03B
:101A80004FFA20B16B7813B900F090FAFAE72B788F
:101A9000012B23D11B491A48FFF706FC23680021BC
:101AA00020469B699847002384F8283000F0B8F856
:101AB0006062039C7CB16368013B63605BB923682F
:101AC00020469B689847A368013BA3601BB9236825
:101AD0002046DB68984706B0BDE8F081E2680A4915
:101AE0000748FFF7E1FB094B04A90493002304F125
:101AF00010000593FFF72EFFD5E700BFD34E08086F
:101B00000C020020F44E08080B4F0808D1190808F1
:101B1000014B024A1A6070470C020020324F08083D
:101B200008B5024B1B68DB6B019308BD200006085B
:101B300008B5024B1B685B6C019308BD20000608CA
:101B400008B5024B1B689B6C019308BD200006087A
:101B500008B5024B1B685B68019308BDD0010408FF
:101B600008B5024B1B68DB68019308BDD00104086F
:101B700008B5024B1B681B6B019308BDD00104081C
:101B800008B5024B1B689B6B019308BDD00104088C
:101B900008B5024B1B681B6C019308BDD0010408FB
:101BA00008B5024B1B685B6C019308BDD0010408AB
:101BB00008B5024B1B689B6C019308BDD00104085B
:101BC00008B5024B1B68DB6E019308BDD001040809
:101BD00008B5024B1B685B6E019308BDB801040891
:101BE00008B5024B1B68DB6E019308BDB801040801
:101BF00008B5024B1B685B68019308BD9C01040893
:101C000008B5024B1B689B68019308BD9C01040842
:101C100008B5024B1B68DB68019308BD9C010408F2
:101C200008B5024B1B685B69019308BD9C01040861
:101C300008B5024B1B689B6D019308BD9C0104080D
:101C400008B5024B1B68DB6D019308BD9C010408BD
:101C500008B5024B1B685B6E019308BD9C0104082C
:101C600008B5024B1B685B68019308BDB00104080E
:101C700008B5024B1B689B68019308BDB0010408BE
:101C800008B5024B1B68DB68019308BDB00104086E
:101C900008B5024B1B681B69019308BDB00104081D
:101CA00008B5024B1B685B69019308BDB0010408CD
:101CB00008B5024B1B689B69019308BDB00104087D
:101CC00008B5024B1B68DB69019308BDB00104082D
:101CD00008B5024B1B681B6B019308BDB0010408DB
:101CE00008B5024B1B68DB68019308BDAC01040812
:101CF00008B5024B1B689B69019308BDAC01040841
:101D000008B5024B1B68DB69019308BDAC010408F0
:101D100008B5024B1B681B6A019308BDAC0104089F
:101D200008B5024B1B685B6A019308BDAC0104084F
:101D300008B5024B1B689B6A019308BDAC010408FF
:101D400008B5024B1B68DB6A019308BDAC010408AF
:101D500008B5024B1B681B6B019308BDAC0104085E
:101D600008B5024B1B685B6B019308BDAC0104080E
:101D700008B5024B1B681B6C019308BDAC0104083D
:101D800008B5024B1B689B6C019308BDAC010408AD
:101D900008B5024B1B68DB6C019308BDAC0104085D
:101DA00008B5024B1B681B6D019308BDAC0104080C
:101DB00008B5024B1B68DB69019308BDB401040838
:101DC00008B5024B1B681B6A019308BDB4010408E7
:101DD00008B5024B1B689B69019308BDC401040848
:101DE00008B5024B1B685B6A019308BDC401040877
:101DF00008B5024B1B689B6A019308BDC401040827
:101E000008B5024B1B68DB6A019308BDC4010408D6
:101E100008B5024B1B681B6B019308BDC401040885
:101E200008B5024B1B685B6B019308BDC401040835
:101E300008B5024B1B689B6B019308BDC4010408E5
:101E400008B5024B1B681B6C019308BDC401040854
:101E500008B5024B1B681B68019308BD1C000608EF
:101E600008B5024B1B681B69019308BD1C000608DE
:101E700008B5024B1B685B69019308BD1C0006088E
:101E800008B5024B1B689B69019308BD1C0006083E
:101E900008B5024B1B68DB69019308BD1C000608EE
:101EA00008B5024B1B681B6A019308BD1C0006089D
:101EB00008B5024B1B685B6B019308BDA0010208CB
:101EC00008B5024B1B685B6D019308BDA0010208B9
:101ED00008B5024B1B681B68019308BDA4010408E8
:101EE00008B5024B1B685B68019308BDA401040898
:101EF00008B5024B1B685B69019308BDA401040887
:101F000008B5024B1B689B69019308BDA401040836
:101F100008B5024B1B68DB6A019308BDA4010408E5
:101F200008B5024B1B68DB6C019308BDA4010408D3
:101F300008B5024B1B685B6D019308BDA401040842
:101F400008B5024B1B689B6D019308BDA4010408F2
:101F500008B5034B1B68D3F89030019308BD00000F
:101F6000A401040808B5034B1B68D3F89C30019307
:101F700008BD0000A401040808B5034B1B68D3F892
:101F8000B830019308BD0000A401040808B5024B55
:101F90001B681B68019308BDCC01040808B5024BFF
:101FA0001B685B68019308BDCC01040808B5024BAF
:101FB0001B689B68019308BDCC01040808B5024B5F
:101FC0001B68DB68019308BDCC01040808B5024B0F
:101FD0001B685B69019308BDCC01040808B5024B7E
:101FE0001B68DB69019308BDCC01040808B5024BEE
:101FF0001B681B6A019308BDCC01040808B5024B9D
:102000001B685B6A019308BDCC01040808B5024B4C
:102010001B68DB6A019308BDCC01040808B5024BBC
:102020001B681B6B019308BDCC01040808B5024B6B
:102030001B68DB6B019308BDCC01040808B5024B9B
:102040001B685B6C019308BDCC01040808B5024B0A
:102050001B685B68019308BDC801040808B5024B02
:102060001B689B68019308BDC801040808B5024BB2
:102070001B68DB68019308BDC801040808B5024B62
:102080001B681B69019308BDC801040808B5024B11
:102090001B685B69019308BDC801040808B5024BC1
:1020A0001B689B69019308BDC801040808B5024B71
:1020B0001B68DB69019308BDC801040808B5024B21
:1020C0001B681B6A019308BDC801040808B5024BD0
:1020D0001B681B6B019308BDC801040808B5024BBF
:1020E0001B685B6B019308BDC801040808B5024B6F
:1020F0001B681B68019308BDA001040808B5024BCA
:102100001B685B68019308BDA001040808B5024B79
:102110001B689B68019308BDA001040808B5024B29
:102120001B681B69019308BDA001040808B5024B98
:102130001B68DB69019308BDA001040808B5024BC8
:102140001B68DB6A019308BDA001040808B5024BB7
:102150001B681B6B019308BDA001040808B5024B66
:102160001B685B6C019308BDA00104080021FFF708
:10217000BFBE10B5836804460BB901F0DAFBC36833
:102180009847A3681BB10322214620469847204662
:10219000BDE81040102101F0C6BB00224068114686
:1021A000FFF76CBFF0B5002685B0044610460F4619
:1021B0001546039602F0E7FB7B6881B2009628463D
:1021C00003AAFFF7ADFC30B13146204600F024FDF4
:1021D000204605B0F0BD204603A900F015FDF7E745
:1021E000002240681146FFF769BF0022406811468F
:1021F000FFF774BF00224068FFF768BF0022406805
:1022000081F00101FFF752BF002340681A461946CA
:10221000FFF744BF002340681A461946FFF736BF50
:10222000002240681146FFF719BF002202214068D2
:10223000FFF71CBF002340681A46FFF707BF0000E6
:10224000F0B5002518260F46194B32460360283397
:102250002946C0E9025589B043600446103002F0B7
:1022600039FB2A4629467868FFF708FF18B9A060AD
:10227000204609B0F0BD2946324602A8CDE90055F6
:1022800002F028FB684602A9ADF80860FFF750FC91
:1022900010B10123A360EBE7009B019AA360E26009
:1022A0000BB90223A360204602A900F0A2F8DFE7E1
:1022B000C84F080810B52824074B224618460021AD
:1022C00002F008FB4FF0FF3242600422034B04800F
:1022D0005A60034A1A6010BD180200201002002044
:1022E000944F08087047007D704710B504462821B8
:1022F00001F019FB204610BD08B5037D5BB1C06934
:10230000002808DB02F038F8044902F03DF90449DE
:1023100002F086F808BD0348FCE700BF00FF7F47D6
:102320000000C842000080BF08B5037D4BB1806942
:10233000B0F1004F05D002F01FF8034902F024F974
:1023400008BD0020FCE700BF0000C84208B5037DBF
:102350005BB1406A002808DB02F00EF8044902F085
:1023600013F9044902F05CF808BD0348FCE700BF1C
:1023700000FF7F470000C842000080BF08B5037D12
:102380004BB1006AB0F1004F05D001F0F5FF0349F1
:1023900002F0FAF808BD0020FCE700BF0000C842C8
:1023A00070B50C1E06460ADA2D2100F0E3FC054646
:1023B00061420A22304600F0E0FC284470BD21460C
:1023C0000025F6E770B50C46054681682046FFF704
:1023D000E7FF2C210646204600F0CCFCE9680644C5
:1023E0002046FFF7DDFF304470BDA0F10400FFF789
:1023F000E9BF30B50D4600F110040FCD0FC495E8CC
:10240000030084E80300012030BD704700207047BE
:1024100010B50446102101F086FA204610BD08B51B
:10242000FFF7F6FF08BD002230B54FF69C7402603E
:1024300084808D888C800C68858004600A6030BD43
:1024400010B504460068FFF759FE204610BD38B5A8
:10245000C468F4B12378022B03D104F10C00FFF718
:10246000EFFF656835B12846FFF799F81021284637
:1024700001F059FAA56835B12846FFF790F8102108
:10248000284601F050FA2046BDE83840142101F0FA
:102490004ABA38BD10B588B00446684600F0F7FC6B
:1024A000694604A800F015FD04A8A047044604A846
:1024B00000F0A3FC684600F0A0FC204608B010BD68
:1024C0001FB500231024CDE90201019269461A4686
:1024D0001846ADF80230ADF80040FFF75FFD04B0DC
:1024E00010BD082307B5ADF80030036800218DF852
:1024F0000230037A8DF80330436868460193FFF792
:102500009DFD03B05DF804FB38B5046805467CB159
:102510006368013B63605BB9236820469B6898470A
:10252000A368013BA3601BB923682046DB6898477A
:10253000284638BD0B68036013B15A6801325A60EF
:10254000704773B50E46044656F8043B0D4601A885
:1025500031460093FFF7EEFF009B019A23600023B2
:10256000626001A801930093FFF7CEFF3046FFF7AA
:10257000CBFF2846082101F0D6F9204602B070BDF5
:1025800013B56C460B46024603C884E8030093E883
:10259000030082E8030094E8030083E8030002B02C
:1025A00010BD826810B50AB901F0C3F9C368BDE86F
:1025B0001040184708B5006800F11001FFF7F1FF5F
:1025C00008BD826810B50AB901F0B3F9C368BDE867
:1025D0001040184708B5006800F11001FFF7F1FF3F
:1025E00008BD000038B500230446036010200D46E6
:1025F000FDF75BFD28B10123C0E90133024BC56043
:1026000003602060204638BDFC4F080838B5002321
:1026100083608B6804460D462BB102229847EB6815
:10262000E360AB68A360204638BD0000F0B589B018
:1026300004686846FFF7F7FE4FF00203D4E84F2F17
:10264000002A03D1C4E8413F0029F7D125D104F184
:102650000C0569462846FFF7E6FE0123BFF35B8FB2
:1026600063700020BFF35B8F04F1080353E8006F31
:1026700043E80002002AF9D1BFF35B8F6EB1FFF788
:102680004FFC78B129463046FFF78BFF3046FEF706
:1026900086FF1021304601F046F96846FFF7D0FE6C
:1026A00009B0F0BD314602A8FFF7B0FFE068B4F909
:1026B000105008B102F04CF906901020ADF81C50F3
:1026C000FDF7F3FC0546E8B1002787601820FDF709
:1026D000ECFC044688B10146876002A8FFF750FF72
:1026E000049BA268A360059B0492E26806A9E360CC
:1026F00004F110000592FFF796FE084B2C60EB608A
:10270000074BAB6006A8FFF79BFE02A8FEF747FF4A
:10271000002229460348FFF70BFCB7E7B525080858
:102720004D280808732108082DE9F0478AB00546AE
:102730000C46174698469DF84890FFF747FC07AEB1
:10274000824638BB4FF62E73059005A93046ADF88A
:102750001830FFF768FE1420FDF7A7FC044648B1C7
:10276000022303700123C0E901AA437031460C30F3
:10277000FFF759FE2846214640F8044BFFF732FF89
:102780003046FFF75DFE05A8FFF75AFE28460AB05F
:10279000BDE8F0870C234FF0000A1420CDE908AA09
:1027A0000793FDF782FC014628B1C0E901AA80F831
:1027B00000A080F801A004A80391FFF713FF224BAB
:1027C00008200893FDF771FC824628B1039B04A9F9
:1027D00040F8043BFFF7AEFE4246394620460096DD
:1027E0005FFA89F3CDF824A0FFF700FCB8B9039B8A
:1027F0005B7803F0FF0293B94FF69C7305A903A819
:102800000592ADF81830FFF711FF05A8FFF718FE85
:1028100005A80999FFF795FE06A8FFF775FE039B2B
:1028200004A906A80593FFF785FE059B069A2B6071
:1028300000236A6006A806930593FFF765FE04A8C7
:10284000FFF762FEA2E700BF11290808022AF8B5C7
:10285000054607D0032A18D0012A01D10B6803606E
:102860000020F8BD18200E68FDF71FFC044650B18B
:102870003146FFF7CBFE3069B6F9147008B102F0AB
:1028800067F82061A7822C60EAE70468002CE7D093
:1028900004F11000FFF7D4FD2046FEF780FE18215A
:1028A000204601F040F8DBE738B5002383608B68F1
:1028B00004460D462BB102229847EB68E360AB68F3
:1028C000A360204638BD022A70B5044607D0032A0B
:1028D00012D0012A01D10B680360002070BD1420C2
:1028E0000E68FDF7E2FB054620B13146FFF7DCFF3D
:1028F000337C2B742560F0E70468002CEDD0204673
:10290000FEF74DFE1421204601F00DF8E5E700002A
:10291000F0B5044689B00D4601A81146FFF711FE37
:10292000A4B124B21DB1284602F012F8054601A850
:1029300003A90395ADF81040FFF778FE03A8FFF751
:102940007FFD02A8FFF7E0FD09B0F0BD0123019D66
:10295000D5E84F2F002A03D1C5E8413F0029F7D120
:10296000EFD12B73BFF35B8F6B70BFF35B8F2B1DAE
:1029700053E8006F43E80042002AF9D1BFF35B8FB0
:10298000002EDED02046FFF7CBFA074660B1304676
:1029900005F10C01FFF715FE3046FEF700FE102191
:1029A000304600F0C0FFCCE7314603A8FFF77CFFBC
:1029B0002B7B10208DF81C30FDF777FB0546D0B13E
:1029C00087601420FDF771FB044678B101468760EB
:1029D00003A8FFF7D5FD059BA268A360069B05929F
:1029E000E268E3609DF81C3006922374064B2C606D
:1029F000EB60064BAB6003A8FEF7D1FD0022294631
:102A00000348FFF795FAC7E7D5250808C72808083F
:102A1000732108087047F8B5064615460C468F180E
:102A2000BC4206D0336830469B6814F8011B9847B7
:102A3000F6E72846F8BD0022007CFFF769B90021BF
:102A4000007CFFF76DB90021007CFFF771B9002110
:102A5000007CFFF775B90021007CFFF779B910B54C
:102A60000446142100F05FFF204610BD10B54FF45E
:102A70007A73044608460021C4E90113034B11464A
:102A800023602074FFF774F9204610BD1850080821
:102A90000023007C1A461946FFF722B97FB50022B1
:102AA0001423CDE90122ADF804300B78007C8DF8B9
:102AB00008304B680393CB6804930B7A01A9059304
:102AC000FFF76EF907B05DF804FB1FB5003B8DF80A
:102AD00000104FF0640118BF012303916946019271
:102AE0008DF80830FFF7DAFF05B05DF804FB00222F
:102AF000007CFFF7FDB8C9B2FFF7F9BF0022007CE8
:102B0000FFF7FEB808B50021007CFFF739F9B0FAED
:102B100080F0400908BD08B50021007CFFF738F9B6
:102B2000B0FA80F0400908BD004700002DE9FF41E0
:102B300000241D460F4690460646FFF7C1F80423C1
:102B4000A5428DF80C30A8BF9DF82830ADF80D4097
:102B50008DF80F40A4BF03AC8DF80E303A464346C3
:102B6000304606490094A8BF8DF80D50FFF7A0F835
:102B7000B0FA80F0400904B0BDE8F081292B0808C4
:102B8000F8B50446FFF79CF8054670B9084F57F8AA
:102B9000246046B13046FEF702FD1021304600F0B9
:102BA000C2FE47F82450012000E00020F8BD00BF1D
:102BB00040020020704710B50446082100F0B3FE23
:102BC000204610BDF8B50E46002400F10807051D8B
:102BD00017F8011D0A22304600F0CFF8AF42044436
:102BE00001D12046F8BD002CF2D02E21304600F055
:102BF000C1F80444ECE70000024A0260002242608F
:102C0000704700BF40500808024A02600A684260EC
:102C1000704700BF40500808014AC0E900217047D2
:102C20004050080810B59DF8084044EA032444EADF
:102C3000024444EA0164446010BD000037B5044D0D
:102C400005609DF818500095FFF7ECFF03B030BD0C
:102C500040500808014B024A1A607047FC020020ED
:102C60004C500808002340681A46FFF7EFB90022CD
:102C700002214068FFF7FAB9002240681146FFF7C9
:102C8000EDB9002240681146FFF7F8B9002340680B
:102C90001A461946FFF7FAB9002340681A46194642
:102CA000FFF7FCB90022406881F00101FFF7FEB98F
:102CB00000224068FFF70ABA002240681146FFF779
:102CC0000DBA002240681146FFF7F8B970B51546F5
:102CD000002686B0044604A8FFF78EFF2846039618
:102CE00001F051FE0A4B009681B25B68284603AAA8
:102CF000FEF716FF30B131462046FFF78DFF204624
:102D000006B070BD204603A9FFF77EFFF7E700BFBE
:102D100010020020024B034A1A6000225A607047DA
:102D20000003002058500808F8B506460D46002458
:102D30008F18BD420CD0336830469B6815F8011BD4
:102D40009847031E01DB1C44F3E7002C08BF1C4618
:102D50002046F8BD70B505460C46084649B101F05D
:102D600012FE2B68024621462846BDE87040DB680B
:102D7000184770BD03689B6818470023012A98BF55
:102D80000A2230B58BB00C468DF8243009A92546AF
:102D9000B4FBF2F404FB1253DBB2092B94BF3033C3
:102DA0003733DBB2AA4201F8013DF0D9FFF7D2FF79
:102DB0000BB030BD10B50446FEF7F1FB204610BD48
:102DC00000230348034A0449836000F0A7BD00BF05
:102DD0000803002000010020B52D080870B500266A
:102DE00004460D4640F8086FFEF7DAFE28462570C7
:102DF000FEF7DEFF2046666070BD10B50446006831
:102E0000FFF77CF9204610BD10B50446006808B1F4
:102E1000FFF774F90023C4E90133236010BD38B50E
:102E200004460D4600680131FFF770F910B1C4E99E
:102E30000005012038BD10B50368044623B143687E
:102E40008B4201D3012010BD2046FFF7E8FF002888
:102E5000F9D0A368002BF5D122681370F2E770B5A2
:102E60000E46114604461546FFF7E5FF20B92046F9
:102E7000FFF7CAFF204670BD2A4631462068A5608C
:102E800001F000FD00212268A368D154F2E738B5B3
:102E9000002304460D46C0E900338360037339B153
:102EA000084601F070FD294602462046FFF7D7FF8D
:102EB000204638BD884210B50B46044604D0096848
:102EC00021B19A68FFF7CBFF204610BDFFF79CFFAA
:102ED000FAE7002310B50446C0E9003383600373AA
:102EE000FFF7E8FF204610BD08B582683AB921B166
:102EF0000878B0FA80F0400900E0012008BD0068C1
:102F000009B90078F5E701F011FDF2E758B50E4672
:102F10002AB121B184689C4202D800230B7058BDAD
:102F2000E41A013A944228BF144601682246194423
:102F3000304601F030FD00233355F0E710B504466C
:102F4000006818B1FFF7DAF80023236010BD38B528
:102F5000B1F904300D4683800B4653F8062F044622
:102F6000C0F806209B884381FFF7E8FF2B6813B168
:102F7000236000232B60204638BDB1F9043010B522
:102F80000A6833B932B951F8063F03608B888380F1
:102F900010BD22B19488012C03D0042C06D0042249
:102FA00005E092898C710B814A81ECE702220B814A
:102FB0004FF6FF738A714B81E5E707B50B46002199
:102FC0000246009101208C21FEF7D6FF03B05DF888
:102FD00004FB01460020FFF7F0BF0020FFF7F9BF18
:102FE00030B5044685B0084611461A460023FEF760
:102FF00087FF00230193ADF808308DF80A304FF6B3
:10300000FF73094D01A9ADF80C002846ADF80E304C
:10301000FFF79DFF01A8FFF791FF20462946FFF724
:10302000ACFF204605B030BD18030020022200206E
:1030300010B5084B084C1A60084B2060A080A071A6
:10304000A360FEF74DFF2046BDE81040044A054945
:1030500000F064BC24030020180300200000FFFFE0
:1030600000010020890108082DE9F041154ADFF828
:103070006080D2E90032C01842EB0101124A8CB0E4
:10308000D2E90032C61841EB0207D8E90023BB425F
:1030900008BFB24213D003A96846CDE90067FCF728
:1030A000BFFF089B094D03F26C7303AC08930FCC70
:1030B0000FC50FCC0FC5C8E9006723682B600CB0A3
:1030C000BDE8F08158030020500300202C030020AD
:1030D0006003002008B50020FEF7A0FF28B1FEF72E
:1030E00075FF80F00100C0B208BD0120FCE70000C0
:1030F00008B5FFF7B9FF024B9869013008BD00BF62
:103100002C03002008B5FFF7AFFF024B1869013010
:1031100008BD00BF2C03002010B50A49044601F089
:103120001DFB68B92046084901F036FB40B9074944
:10313000204601F075F901F039FB054BC3E90001A8
:1031400010BD00BF000040C10000604100006145AB
:103150005803002010B50021044601F0FFFA70B9B1
:103160004FF08041204601F017FB40B9044920464A
:1031700001F056F901F01AFB024BC3E9000110BD42
:103180000000614590000020034BD3E90001034B90
:10319000C3E90001704700BF9000002050030020E9
:1031A00000200021014BC3E90001704750030020BB
:1031B00030B50446184893B0D0E90010521840EBDF
:1031C000030316480025D0E90010521840EB030312
:1031D000CDE90023242200210DEB020001F07AFB4F
:1031E00009A96846FCF71CFF1622294603A8029588
:1031F00001F070FB02A909A801F00CFB02A801F084
:10320000C2FB12AB184400F8415C02A92046FFF74C
:103210003EFE204613B030BD58030020500300206E
:1032200010B50020FEF704FD0446A0B9FEF750FEDD
:10323000012810D12046FEF783FE60B9FFF74AFF50
:1032400010B9FEF7B3FEF9E7FFF744FFBDE8104001
:103250000020FEF7EDBC204610BD1FB5FFF7E0FFD4
:1032600010220021684601F035FB00216846FEF778
:10327000EFFC009805B05DF804FB000008B5FFF70F
:10328000ECFFC117FFF7F0FE014B986808BD00BFC7
:103290002C03002008B5FFF7E0FFC117FFF7E4FE9D
:1032A000014BD86808BD00BF2C03002008B5FFF70C
:1032B000D4FFBDE80840C117FFF71ABF08B5FFF7F4
:1032C000CCFFBDE80840C117FFF71CBF08B5FFF7EA
:1032D000C4FF034B034A1B6812681344184408BD1B
:1032E0005803002050030020024B1A68024B1A605A
:1032F000704700BF8C0000202803002070474174F5
:10330000704708B5007CFEF79BFD20EAE07008BD21
:1033100008B5007CFEF76CFD20EAE07008BD08B53A
:10332000007CFEF775FD40EAE07008BD08B5007C42
:10333000FEF766FD40EAE07008BD007CFEF770BD58
:1033400070B5467C04460D462EB12946207CBDE86A
:103350007040FEF745BD007CFEF772FD0028F4DCEE
:10336000304670BD10B50446142100F0DCFA20464A
:1033700010BD00004FF0000C10B504460846114681
:103380004FF47A72C4E901C2044A20742260012217
:1033900062741A46FEF71CFD204610BDA8500808AE
:1033A00038B50D4D2978BFF35B8F11F0010411D1B1
:1033B0002846FCF78BFE68B12146084A084B0948AD
:1033C000FFF7D8FF2846FCF786FE074A074905485D
:1033D00000F0A4FA034838BD680300206C03002005
:1033E000F00300207404002000010020FD320808D2
:1033F00041747047704708B50021007CFEF740FD1E
:1034000040EAE07008BD08B50121007CFEF738FDF8
:1034100040EAE07008BD08B5007CFEF729FD20EA0F
:10342000E07008BD08B5007CFEF71AFD20EAE070E8
:1034300008BD38B50446007C0D46FEF719FD00288E
:1034400001DC607C28B12946207CFEF721FD20EAC2
:10345000E07038BD007CFEF723BD10B50446142192
:1034600000F061FA204610BD10B54FF47A7304469F
:1034700008460021C4E90113044B20742360012392
:1034800011466374FEF7E4FC204610BDD8500808CE
:1034900010B504461422002101F01CFA054B204609
:1034A0006360054BE36040F2011323818123238293
:1034B00010BD00BFB8040020B905002030B50F4D85
:1034C00087B001A8FFF7E4FF2978BFF35B8F11F005
:1034D000010410D12846FCF7F9FD60B1214601AA8C
:1034E0000748FFF7C1FF2846FCF7F5FD054A0649E6
:1034F000034800F013FA024807B030BD88040020EA
:103500009004002000010020F533080810B504469F
:103510001422002101F0DEF9054B20466360054BC3
:10352000E36040F2011323818123238210BD00BF99
:103530003A0600203B07002010B50F4C86B001A8CA
:10354000FFF7E4FF2378BFF35B8FDB0710D420463F
:10355000FCF7BCFD60B1012101AA0848FFF784FF18
:103560002046FCF7B8FD064A0649044800F0D6F9A3
:10357000024806B010BD00BF8C040020A404002047
:1035800000010020F5330808014B1860704700BFA8
:103590009800002008B5174B43B1FFF78FFF036871
:1035A0001B699847002801DDAFF30080124B43B13F
:1035B000FFF7F6FE03681B699847002801DDAFF3AB
:1035C00000800E4B0BB1AFF300800D4B0BB1AFF38E
:1035D00000800C4B0BB1AFF300800B4B43B1FFF7F6
:1035E000ABFF03681B699847002801DDAFF300803B
:1035F00008BD00BF00000000000000000000000047
:1036000000000000000000000000000008B5FFF707
:10361000C1FFFEF705FB014B186008BDD407002071
:103620000248034A0349121A01F02CB90040024033
:103630000448024080520808002307B51A466FF07C
:1036400077010093FEF78EFC03B05DF804FB0000E9
:1036500007B543880A2B08D0502B0BD1094B1B68A8
:103660004BB103B05DF804EB1847FFF7E5FF03B07B
:103670005DF804FB00231A466FF077010093FEF714
:1036800071FCF4E7C007002038B5124C0021124845
:10369000FEF764FD114D2368AB420CBF01220022EE
:1036A0000F4B1A7002D0FFF7BBFF2560FEF7A0FAA0
:1036B000044601F017F90B4B13B12046AFF300801D
:1036C00000210848FEF7B2FCBDE83840002106485A
:1036D000FEF73EBC00480240893508081E1C279AA8
:1036E000BC070020000000005136080808B5024B56
:1036F0001B681B68019308BD9C01020808B5024BBA
:103700001B685B68019308BD9C01020808B5024B69
:103710001B689B68019308BD9C01020810B5044614
:10372000806808B1FEF744FA204610BD2E2870B517
:10373000044601D9002070BDA0F10D03022B0BD966
:10374000012826D800F0AAF80021007CFEF708FB2B
:1037500080F00100C0B2EEE7134E3178BFF35B8F0B
:1037600011F001050FD13046FCF7B0FC58B12946E5
:103770000E48FFF733FB3046FCF7ADFC0C4A0D4911
:103780000A4800F0CBF8094B1878FEF719FB00281F
:10379000D0D1123C012C05D8FFF702FE007CFEF7C9
:1037A00047FBD5E70120C6E7C4070020C807002073
:1037B000000100201D3708082E2838B504460D46A4
:1037C0000AD8FF2908D0FFF7B1FF28B129462046C3
:1037D000BDE83840FEF74CBA38BD38B504460D4652
:1037E000FEF74EFAFF2810D0062804D84D2323FAFE
:1037F00000F0C30709D42046FFF798FF28B12946F7
:103800002046BDE83840FEF743BA38BD10B504463F
:10381000FEF736FA031FDBB2012B08D92046FFF76B
:1038200085FF20B12046BDE81040FEF739BA0020E0
:1038300010BD10B5044609289CBF0A34A4B2204626
:10384000FFF774FF50B103212046FEF709FA032861
:1038500004D12046BDE81040FEF73ABA002010BD62
:10386000002370B5202543801423084E04460380AE
:10387000314685600561284600F059F831466060A0
:10388000284600F054F8E060204670BD005108085A
:1038900010B50446FFF7E4FF204610BD30B50F4DCC
:1038A00087B02978BFF35B8F11F0010413D128464C
:1038B000FCF70CFC78B101A8FFF7EAFF214601AA4A
:1038C0000748FFF7D3F82846FCF705FC054A0649E8
:1038D000034800F023F8024807B030BDD8070020A5
:1038E000DC07002000010020152A0808002313B57A
:1038F000074C1A46194620460093FFF79FF92046C9
:10390000044A054902B0BDE8104000F007B800BF06
:10391000F007002000010020B52B08080B460146E7
:10392000184600F0A1BFFCF7C4BBFCF7BEBBFCF718
:10393000BEBB08B5FEF702FC81F0004102E000BF0B
:1039400083F0004330B54FEA41044FEA430594EA5F
:10395000050F08BF90EA020F1FBF54EA000C55EA9A
:10396000020C7FEA645C7FEA655C00F0E2804FEA6B
:103970005454D4EB5555B8BF6D420CDD2C4480EA4D
:10398000020281EA030382EA000083EA010180EA7D
:10399000020281EA0303362D88BF30BD11F0004FCB
:1039A0004FEA01314FF4801C4CEA113102D0404201
:1039B00061EB410113F0004F4FEA03334CEA13333C
:1039C00002D0524263EB430394EA050F00F0A78054
:1039D000A4F10104D5F1200E0DDB02FA0EFC22FA4F
:1039E00005F2801841F1000103FA0EF2801843FA43
:1039F00005F359410EE0A5F120050EF1200E012A34
:103A000003FA0EFC28BF4CF0020C43FA05F3C01871
:103A100051EBE37101F0004507D54FF0000EDCF1EA
:103A2000000C7EEB00006EEB0101B1F5801F1BD393
:103A3000B1F5001F0CD349085FEA30004FEA3C0C97
:103A400004F101044FEA445212F5800F80F09A808D
:103A5000BCF1004F08BF5FEA500C50F1000041EB91
:103A6000045141EA050130BD5FEA4C0C404141EB95
:103A70000101013C28BFB1F5801FE9D291F0000F90
:103A800004BF01460020B1FA81F308BF2033A3F13F
:103A90000B03B3F120020CDA0C3208DD02F1140C36
:103AA000C2F10C0201FA0CF021FA02F10CE002F171
:103AB0001402D8BFC2F1200C01FA02F120FA0CFC6A
:103AC000DCBF41EA0C019040E41AA2BF01EB0451B3
:103AD000294330BD6FEA04041F3C1CDA0C340EDCB1
:103AE00004F11404C4F1200220FA04F001FA02F3F4
:103AF00040EA030021FA04F345EA030130BDC4F1B2
:103B00000C04C4F1200220FA02F001FA04F340EAA6
:103B10000300294630BD21FA04F0294630BD94F057
:103B2000000F83F4801306BF81F480110134013D3E
:103B30004EE77FEA645C18BF7FEA655C29D094EAAF
:103B4000050F08BF90EA020F05D054EA000C04BF2D
:103B50001946104630BD91EA030F1EBF0021002018
:103B600030BD5FEA545C05D14000494128BF41F0B7
:103B7000004130BD14F580043CBF01F5801130BD1B
:103B800001F0004545F0FE4141F470014FF00000A6
:103B900030BD7FEA645C1ABF194610467FEA655C57
:103BA0001CBF0B46024650EA013406BF52EA0335F9
:103BB00091EA030F41F4002130BD00BF90F0000FE7
:103BC00004BF0021704730B54FF4806404F1320423
:103BD0004FF000054FF0000150E700BF90F0000FDC
:103BE00004BF0021704730B54FF4806404F1320403
:103BF00010F0004548BF40424FF000013EE700BFD3
:103C000042004FEAE2014FEA31014FEA02701FBF62
:103C100012F07F4393F07F4F81F06051704732F094
:103C20007F4208BF704793F07F4F04BF41F40021EB
:103C3000704730B54FF4607401F0004521F0004149
:103C40001CE700BF50EA010208BF704730B54FF0D3
:103C500000050AE050EA010208BF704730B511F0D4
:103C6000004502D5404261EB41014FF4806404F10C
:103C700032045FEA915C3FF4D8AE4FF003025FEA92
:103C8000DC0C18BF03325FEADC0C18BF033202EB16
:103C9000DC02C2F1200300FA03FC20FA02F001FA70
:103CA00003FE40EA0E0021FA02F11444BDE600BF13
:103CB00070B54FF0FF0C4CF4E06C1CEA11541DBFC2
:103CC0001CEA135594EA0C0F95EA0C0F00F0DEF88D
:103CD0002C4481EA030621EA4C5123EA4C5350EA72
:103CE000013518BF52EA033541F4801143F48013C3
:103CF00038D0A0FB02CE4FF00005E1FB02E506F054
:103D00000042E0FB03E54FF00006E1FB03569CF0A8
:103D1000000F18BF4EF0010EA4F1FF04B6F5007FAE
:103D200064F5407404D25FEA4E0E6D4146EB060620
:103D300042EAC62141EA55514FEAC52040EA5E50A9
:103D40004FEACE2EB4F1FD0C88BFBCF5E06F1ED853
:103D5000BEF1004F08BF5FEA500E50F1000041EB8A
:103D6000045170BD06F0004646EA010140EA020037
:103D700081EA0301B4EB5C04C2BFD4EB0C0541EA59
:103D8000045170BD41F480114FF0000E013C00F36E
:103D9000AB8014F1360FDEBF002001F0004170BD92
:103DA000C4F10004203C35DA0C341BDC04F11404AB
:103DB000C4F1200500FA05F320FA04F001FA05F237
:103DC00040EA020001F0004221F0004110EBD37004
:103DD00021FA04F642EB06015EEA430E08BF20EA30
:103DE000D37070BDC4F10C04C4F1200500FA04F3D3
:103DF00020FA05F001FA04F240EA020001F0004165
:103E000010EBD37041F100015EEA430E08BF20EAD7
:103E1000D37070BDC4F1200500FA05F24EEA020E1F
:103E200020FA04F301FA05F243EA020321FA04F04E
:103E300001F0004121FA04F220EA020000EBD37005
:103E40005EEA430E08BF20EAD37070BD94F0000F05
:103E50000FD101F00046400041EB010111F4801F39
:103E600008BF013CF7D041EA060195F0000F18BFEA
:103E7000704703F00046520043EB030313F4801F26
:103E800008BF013DF7D043EA0603704794EA0C0FE0
:103E90000CEA135518BF95EA0C0F0CD050EA4106F6
:103EA00018BF52EA4306D1D181EA030101F0004173
:103EB0004FF0000070BD50EA410606BF104619469B
:103EC00052EA430619D094EA0C0F02D150EA0136A7
:103ED00013D195EA0C0F05D152EA03361CBF1046E8
:103EE00019460AD181EA030101F0004141F0FE4187
:103EF00041F470014FF0000070BD41F0FE4141F40B
:103F0000780170BD70B54FF0FF0C4CF4E06C1CEA0A
:103F100011541DBF1CEA135594EA0C0F95EA0C0FBF
:103F200000F0A7F8A4EB050481EA030E52EA03357A
:103F30004FEA013100F088804FEA03334FF080559B
:103F400045EA131343EA12634FEA022245EA1115C8
:103F500045EA10654FEA00260EF000419D4208BF79
:103F6000964244F1FD0404F5407402D25B084FEA26
:103F70003202B61A65EB03055B084FEA32024FF4D2
:103F800080104FF4002CB6EB020E75EB030E22BF2F
:103F9000B61A754640EA0C005B084FEA3202B6EBEF
:103FA000020E75EB030E22BFB61A754640EA5C009E
:103FB0005B084FEA3202B6EB020E75EB030E22BF2E
:103FC000B61A754640EA9C005B084FEA3202B6EB2F
:103FD000020E75EB030E22BFB61A754640EADC00EE
:103FE00055EA060E18D04FEA051545EA16754FEA50
:103FF00006164FEAC30343EA52734FEAC2025FEA6E
:104000001C1CC0D111F4801F0BD141EA00014FF0FC
:1040100000004FF0004CB6E711F4801F04BF0143CD
:104020000020B4F1FD0C88BFBCF5E06F3FF6AFAEE9
:10403000B5EB030C04BFB6EB020C5FEA500C50F179
:10404000000041EB045170BD0EF0004E4EEA1131FC
:1040500014EB5C04C2BFD4EB0C0541EA045170BD03
:1040600041F480114FF0000E013C90E645EA060E47
:104070008DE60CEA135594EA0C0F08BF95EA0C0F75
:104080003FF43BAF94EA0C0F0AD150EA01347FF4BD
:1040900034AF95EA0C0F7FF425AF104619462CE794
:1040A00095EA0C0F06D152EA03353FF4FDAE1046F7
:1040B000194622E750EA410618BF52EA43067FF448
:1040C000C5AE50EA41047FF40DAF52EA43057FF4D8
:1040D000EBAE12E74FEA410212F5001215D211D5EC
:1040E0006FF47873B3EB625212D94FEAC12343F0F5
:1040F000004343EA505311F0004F23FA02F018BF77
:10410000404270474FF00000704750EA013005D13F
:1041100011F0004008BF6FF0004070474FF0000002
:10412000704700BF4A0011D212F5001211D20DD50E
:104130006FF47873B3EB62520ED44FEAC12343F0AD
:10414000004343EA505323FA02F070474FF0000057
:10415000704750EA013002D14FF0FF3070474FF006
:10416000000070474FEA4102B2F1E04324BFB3F5CB
:10417000001CDCF1FE5C0DD901F0004C4FEAC002DE
:104180004CEA5070B2F1004F40EB830008BF20F0C2
:104190000100704711F0804F21D113F13872BCBF7C
:1041A00001F00040704741F480114FEA5252C2F1D1
:1041B0001802C2F1200C10FA0CF320FA02F018BF1A
:1041C00040F001004FEAC1234FEAD32303FA0CFC6D
:1041D00040EA0C0023FA02F34FEA4303CCE77FEAFC
:1041E000625307D150EA01331EBF4FF0FE4040F446
:1041F0004000704701F0004040F0FE4040F40000F5
:10420000704700BF80F0004002E000BF81F0004135
:1042100042001FBF5FEA410392EA030F7FEA226C6C
:104220007FEA236C6AD04FEA1262D2EB1363C1BFFC
:10423000D218414048404140B8BF5B42192B88BF6B
:10424000704710F0004F40F4000020F07F4018BF8E
:10425000404211F0004F41F4000121F07F4118BFAE
:10426000494292EA030F3FD0A2F1010241FA03FC56
:1042700010EB0C00C3F1200301FA03F100F000433E
:1042800002D5494260EB4000B0F5000F13D3B0F106
:10429000807F06D340084FEA310102F10102FE2A75
:1042A00051D2B1F1004F40EBC25008BF20F00100E5
:1042B00040EA03007047490040EB0000013A28BF84
:1042C000B0F5000FEDD2B0FA80FCACF1080CB2EB07
:1042D0000C0200FA0CF0AABF00EBC2505242184385
:1042E000BCBFD0401843704792F0000F81F400012A
:1042F00006BF80F400000132013BB5E74FEA4103FD
:104300007FEA226C18BF7FEA236C21D092EA030F68
:1043100004D092F0000F08BF0846704790EA010FE2
:104320001CBF0020704712F07F4F04D1400028BF0F
:1043300040F00040704712F100723CBF00F50000F1
:10434000704700F0004343F0FE4040F40000704727
:104350007FEA226216BF08467FEA236301464202D3
:1043600006BF5FEA412390EA010F40F480007047E6
:104370004FF0000304E000BF10F0004348BF40428C
:104380005FEA000C08BF704743F0964301464FF0C8
:1043900000001CE050EA010208BF70474FF0000324
:1043A0000AE000BF50EA010208BF704711F0004365
:1043B00002D5404261EB41015FEA010C02BF844635
:1043C0000146002043F0B64308BFA3F18053A3F594
:1043D0000003BCFA8CF2083AA3EBC25310DB01FADB
:1043E00002FC634400FA02FCC2F12002BCF1004F5F
:1043F00020FA02F243EB020008BF20F001007047F0
:1044000002F1200201FA02FCC2F1200250EA4C0043
:1044100021FA02F243EB020008BF20EADC70704789
:104420004FF0FF0C1CEAD0521EBF1CEAD15392EA97
:104430000C0F93EA0C0F6FD01A4480EA010C400273
:1044400018BF5FEA41211ED04FF0006343EA5010CD
:1044500043EA5111A0FB01310CF00040B1F5000F0F
:104460003EBF490041EAD3715B0040EA010062F1BE
:104470007F02FD2A1DD8B3F1004F40EBC25008BFA8
:1044800020F00100704790F0000F0CF0004C08BFC6
:1044900049024CEA502040EA51207F3AC2BFD2F193
:1044A000FF0340EAC250704740F400004FF00003A1
:1044B000013A5DDC12F1190FDCBF00F000407047DB
:1044C000C2F10002410021FA02F1C2F1200200FA19
:1044D00002FC5FEA310040F1000053EA4C0308BFE0
:1044E00020EADC70704792F0000F00F0004C02BF31
:1044F000400010F4000F013AF9D040EA0C0093F0AC
:10450000000F01F0004C02BF490011F4000F013B05
:10451000F9D041EA0C018FE70CEAD15392EA0C0F73
:1045200018BF93EA0C0F0AD030F0004C18BF31F0DE
:10453000004CD8D180EA010000F00040704790F0B4
:10454000000F17BF90F0004F084691F0000F91F058
:10455000004F14D092EA0C0F01D142020FD193EA1E
:104560000C0F03D14B0218BF084608D180EA0100A6
:1045700000F0004040F0FE4040F40000704740F082
:10458000FE4040F4400070474FF0FF0C1CEAD05250
:104590001EBF1CEAD15392EA0C0F93EA0C0F69D0AC
:1045A000A2EB030280EA010C49024FEA402037D017
:1045B0004FF0805343EA111143EA10130CF000400E
:1045C0008B4238BF5B0042F17D024FF4000C8B42FE
:1045D00024BF5B1A40EA0C00B3EB510F24BFA3EBDE
:1045E000510340EA5C00B3EB910F24BFA3EB9103AE
:1045F00040EA9C00B3EBD10F24BFA3EBD10340EA08
:10460000DC001B0118BF5FEA1C1CE0D1FD2A3FF64D
:1046100050AF8B4240EBC25008BF20F00100704702
:104620000CF0004C4CEA50207F32C2BFD2F1FF03A5
:1046300040EAC250704740F400004FF00003013AD6
:1046400037E792F0000F00F0004C02BF400010F47A
:10465000000F013AF9D040EA0C0093F0000F01F08E
:10466000004C02BF490011F4000F013BF9D041EAB0
:104670000C0195E70CEAD15392EA0C0F08D14202E3
:104680007FF47DAF93EA0C0F7FF470AF084676E7B6
:1046900093EA0C0F04D14B023FF44CAF08466EE78F
:1046A00030F0004C18BF31F0004CCAD130F000425D
:1046B0007FF45CAF31F000437FF43CAF5FE700BFB5
:1046C0004FF0FF3C06E000BF4FF0010C02E000BFDE
:1046D0004FF0010C4DF804CD4FEA40024FEA410380
:1046E0007FEA226C18BF7FEA236C11D001B052EA36
:1046F000530C18BF90EA010F58BFB2EB030088BFFC
:10470000C81738BF6FEAE17018BF40F0010070476A
:104710007FEA226C02D15FEA402C05D17FEA236C4C
:10472000E4D15FEA412CE1D05DF8040B704700BF93
:10473000844608466146FFE70FB5FFF7C9FF00282A
:1047400048BF10F1000F0FBD4DF808EDFFF7F4FF63
:104750000CBF012000205DF808FB00BF4DF808EDFC
:10476000FFF7EAFF34BF012000205DF808FB00BF1F
:104770004DF808EDFFF7E0FF94BF012000205DF841
:1047800008FB00BF4DF808EDFFF7D2FF94BF0120F2
:1047900000205DF808FB00BF4DF808EDFFF7C8FFEB
:1047A00034BF012000205DF808FB00BF10B50021D8
:1047B0000446FFF7D3FF20B92046BDE8104000F0C3
:1047C00009B804F1004000F005F8404261EB4101F6
:1047D00010BD00BFD0B5FFF713FA00220B4B064601
:1047E0000F46FFF765FAFFF79DFC0446FFF7E6F971
:1047F0000022074BFFF75CFA02460B46304639466B
:10480000FFF79EF8FFF78EFC2146D0BD0000F03D7B
:104810000000F04110B50C46416986B001F26C71A0
:10482000036982690491016803EB430303914168C2
:1048300002EB4202029181680191C1682046009119
:1048400004490B4404490A440449FDF767FC204627
:1048500006B010BD3651080821510808015108085A
:104860000A22002100F024B910B50446044813467A
:1048700020B10A4602202146AFF3008010BD00BFE0
:10488000000000000A44914200F1FF3300D170475C
:1048900010B511F8014B914203F8014FF9D110BD49
:1048A000884210B501EB020402D98442234607D89E
:1048B000431EA14208D011F8012B03F8012FF8E79D
:1048C000014602448A4200D110BD13F8014D02F89E
:1048D000014DF7E703460244934200D1704703F8C5
:1048E000011BF9E738B50D4B04461D68AB6B7BB96E
:1048F0001820FDF7FBFB0A4A0A4BA863C0E9002316
:10490000094B012283600B2383810023C0E9042328
:104910000022AB6B1C615A6138BD00BF98000020BB
:104920000E33CDAB34126DE6ECDE050010F8012B32
:1049300011F8013B012A28BF9A42F7D0D01A7047DC
:10494000034611F8012B03F8012B002AF9D1704717
:10495000024B0146186800F003B800BF9800002021
:1049600070B5044608460D4600F00DF8461C314669
:104970002046FDF7EBFB044618B132462946FFF707
:1049800081FF204670BD034613F8012B002AFBD19E
:10499000181A01387047034610B5013932B111F8C1
:1049A000014F013A03F8014B002CF7D100211A44C2
:1049B000934200D110BD03F8011BF9E72DE9F04740
:1049C0008C468646394E60461CF8014BA55D15F0B5
:1049D0000805F8D12D2C33D14FF001089CF8004088
:1049E00000F1020C002B5CD0102B0CD1302C0AD122
:1049F0009CF8000000F0DF0058284DD110239CF8EF
:104A000001400CF1020C002608F10047013FB7FB02
:104A1000F3F9304603FB197AA4F13005092D18D8B3
:104A20002C46A34224DD751C07D081451DD301D13E
:104A3000A2451ADB012600FB03401CF8014BEBE703
:104A40002B2C08BF9CF80040A84608BF00F1020CC0
:104A5000C8E7A4F14105192D01D8373CE1E7A4F1DD
:104A60006105192D04D8573CDBE74FF0FF36E4E72A
:104A7000731C06D122233846CEF8003042B9BDE877
:104A8000F087B8F1000F00D04042002AF7D00EB1F5
:104A90000CF1FF311160F2E73024002BB3D1082371
:104AA000B1E7302CA4D00A23ADE700BF5B51080862
:104AB00013460A46014602480068FFF77FBF00BF61
:104AC00098000020310008087100080899000808C3
:104AD0009D00080800000000556E6B6E6F776E0039
:104AE0004E6F6E6500576946690047534D00554D3E
:104AF00054530043444D41004C54450049454545FD
:104B0000383032313534004C54455F4341545F4DA9
:104B100031004C54455F4341545F4E423100686957
:104B20006768006C6F770043757272656E742076EB
:104B3000616C75657320696E707574313A202573E8
:104B40002C20696E707574323A202573005374619D
:104B5000746573004E6F204461746100556269642E
:104B60006F747320486F6F6B00526573706F6E7354
:104B70006520526563656976656400537461746588
:104B80000053657420566572626F7365204D6F64C3
:104B900065003000436C6561726564205665726221
:104BA0006F7365204D6F64650025322E3166205588
:104BB00054430054696D65207A6F6E65206F666698
:104BC0007365742025690054696D650037352520AB
:104BD00046756C6C00313030252046756C6C004C8D
:104BE0006F77204F696C00257320533A25322E30A1
:104BF0006625252C20513A25322E306625252000A9
:104C00007B22696E70757431223A25692C202269E5
:104C10006E70757432223A25692C202274656D708D
:104C2000223A25692C2022616C65727473223A2520
:104C3000692C2022726573657473223A25692C20D1
:104C40002274696D657374616D70223A256C7530DC
:104C500030307D004861756C657243616C6C6572C3
:104C60005F486F6F6B0052756E6E696E67004461CE
:104C7000696C7920436C65616E7570004C6F61647E
:104C8000696E672053797374656D2044656661753C
:104C90006C74730046726F6D20257320746F20252D
:104CA00073005374617465205472616E7369746922
:104CB0006F6E0041542B4346554E3D31360D0A0070
:104CC000737061726B2F6465766963652F736573AA
:104CD00073696F6E2F656E64004572726F72205338
:104CE00074617465202D205265736574004572727D
:104CF0006F72205374617465202D20506F77657238
:104D0000204379636C65004572726F722053746141
:104D10007465202D2046756C6C204D6F64656D2088
:104D20005265736574005369676E616C00526573F8
:104D30006574436F756E740054656D70657261744F
:104D40007572650052656C6561736500496E7075BA
:104D5000743100496E7075743200486172642D526E
:104D6000657365740053656E642D4E6F77005665EC
:104D700072626F73652D4D6F6465005365742D54B9
:104D8000696D657A6F6E65005365742D4453544F99
:104D90006666736574005265706F72742D496E702B
:104DA000757473004E6F20416C65727400445354E7
:104DB000206F66667365742025322E316600000010
:104DC0000000000000000000450108085901080823
:104DD0007113080807140808891408080000000067
:104DE000000000001D01080831010808B11508087D
:104DF0003D170808FD160808DB1608087F18080884
:104E000023170808D84A0808E04A0808E54A0808AD
:104E1000EA4A0808EE4A0808F34A0808F84A080867
:104E2000FC4A0808074B0808124B0808352E30309A
:104E3000000000000100000077726974654461742D
:104E400061206661696C656420647572696E6720B3
:104E50006572617365206672616D416464723D259F
:104E6000750000000000000000000000911208081A
:104E70009312080871130808071408088914080811
:104E80005075626C69736851756575654173796EAB
:104E900063007175657565696E67206576656E740A
:104EA0004E616D653D257320646174613D257320FD
:104EB00074746C3D256420666C616773313D2564B4
:104EC00020666C616773323D25642073697A653DA5
:104ED0002564007075626C697368696E672025735C
:104EE0002025732074746C3D256420666C616773A3
:104EF0003D2578007075626C697368656420737510
:104F0000636365737366756C6C79007075626C6948
:104F100073686564206661696C65642C2077696CD0
:104F20006C20726574727920696E20256C75206D15
:104F300073006170702E70756271000000000000D7
:104F4000000000000000000000000000B11508088B
:104F5000B9000808B9000808B9000808B90008082D
:104F6000B9000808000000000000000099160808B9
:104F7000AD160808B11508083D170808FD16080801
:104F8000DB1608087F18080823170808000000002F
:104F900000000000352208082B22080821220808FA
:104FA0009B2108081522080809220808FD21080885
:104FB000F5210808EB210808E1210808A5210808C7
:104FC0000000000000000000E5220808EB220808AD
:104FD000E7220808F9220808292308084D230808B1
:104FE0007D230808C5230808FCFFFFFF0000000020
:104FF000EB23080800000000000000000B24080854
:10500000112408084F2408081F2408080D24080844
:105010000000000000000000152A08085F2A0808A8
:10502000372A0808172A08083F2A0808472A0808C4
:105030004F2A0808572A0808000000000000000056
:10504000C52B0808B52B0808B72B0808617070003D
:105050000000000000000000652C08086F2C080804
:10506000792C0808832C08088D2C0808992C08082E
:10507000A52C0808B12C0808B92C0808C32C08086E
:10508000CD2C080825592D256D2D25645425483A29
:10509000254D3A2553257A0061736374696D650067
:1050A0000000000000000000FD3208086533080819
:1050B00041330808292D0808113308082D33080842
:1050C0001F3308083B330808FF3208080333080879
:1050D0000000000000000000F53308085B340808F9
:1050E00033340808292D080825340808F733080840
:1050F000073408085534080817340808F13308083D
:1051000000252E337320252E337325336420252E5E
:1051100032643A252E32643A252E32642025640A00
:105120000053756E4D6F6E547565576564546875A0
:105130004672695361744A616E4665624D6172419F
:1051400070724D61794A756E4A756C417567536529
:10515000704F63744E6F76446563002020202020DA
:105160002020202028282828282020202020202017
:105170002020202020202020202020881010101007
:10518000101010101010101010101004040404045B
:105190000404040404101010101010104141414187
:1051A000414101010101010101010101010101016F
:1051B0000101010101011010101010104242424281
:1051C000424202020202020202020202020202023F
:1051D0000202020202021010101020000000000063
:1051E00000000000000000000000000000000000BF
:1051F00000000000000000000000000000000000AF
:10520000000000000000000000000000000000009E
:10521000000000000000000000000000000000008E
:10522000000000000000000000000000000000007E
:10523000000000000000000000000000000000006E
:10524000000000000000000000000000000000005E
:10525000000000000000000000000000C11108086C
:10526000111B0808B5220808552C0808152D080838
:10527000C12D08082D300808E9320808ED38080863
:10528000000000000000000000000000000000001E
:10529000000000000000000000000000000000000E
:1052A00000000000000000000000000000000000FE
:1052B00000000000000000000000000000000000EE
:045A80000000000022
:105A84004E6F20416C65727400000000000000003D
:105A94004E6F20416C65727400000000000000002D
:105AA40030750000496E697469616C697A6500003B
:105AB40000004572726F72000000000000000000D8
:105AC40049646C65000000000000000000004465AB
:105AD400626F756E6365204F696C00004465626F88
:105AE400756E63652046756C6C005265706F7274D8
:105AF400696E670000000000526573706F6E736515
:105B04002057616974000000C8AF0000985008086D
:105B1400100E0000000000009C00002000000000A7
:105B24000000000000000000000000000000000071
:105B34000000000000000000000000000000000061
:105B44000000000000000000000000000000000051
:105B54000000000000000000000000000000000041
:105B64000000000000000000000000000000000031
:0C5B740000000000000000000000000025
:105B8000FFFFFFFFFB2905000000010203040506DB
:105B90000708090A0B0C0D0E0F101112131415161D
:0C5BA0001718191A1B1C1D1E1F202800BE
:045BAC0078563412E1
:0400000508080020C7
:00000001FF
