:020000040808EA
:1000000000000808004D0808000005000A0005016E
:080010000402EA0300000000F5
:10001800C044080809480A4908B5884205D0094A71
:10002800824202D0121A03F085FD0748074A0021D0
:10003800121A03F08AFD064808BD00BF000400201C
:10004800944B08084405002044050020C40C0020F7
:10005800C40C002070B502F0A3FA074B074C1E46EB
:10006800E41AA4080025A54204D056F8253098477C
:100078000135F8E770BD00BF504B0808844B0808ED
:1000880000F0B2BD08B500F0B5FCBDE8084002F0CC
:1000980049BA01F09DB901F0A3B90078B0FA80F02F
:1000A800400970470123037070470368C9B29B6811
:1000B800184700224270704710B50446017002F0DC
:1000C80001FB01F0C5FD0120607010BD70B506464A
:1000D8000C46154602F0F6FA317801F0CBFD02F035
:1000E800F1FA210AFFF7E1FF02F0ECFAE1B2FFF7BB
:1000F800DCFF02F0E7FA036829469B68984702F09C
:10010800E1FABDE8704001F0BDBD38B504460D46C2
:1001180002F0D8FA217801F0ADFD02F0D3FA290AED
:10012800FFF7C3FF02F0CEFAE9B2FFF7BEFF02F015
:10013800C9FA01F0A7FD02F0C5FA0122217801F001
:1001480096FD02F0BFFA03685B699847C0B238BDF4
:1001580000F05ABF014B01221A7070477A0500203F
:10016800014B01221A70704779050020014B0122CA
:100178001A707047D305002008B5044901F043FF01
:1001880018B1034B03221A70012008BD69460808FC
:100198006005002008B5054901F035FF20B10420AD
:1001A800012102F05EFA012008BD00BF6946080877
:1001B80037B505469DF8184023438DF800303C2399
:1001C80001F0A4FB284603B030BD002211461046BA
:1001D80001F0EEB881B20148FFF797BFDC050020B7
:1001E8000A4681B20148FFF771BF00BFDC05002055
:1001F80038B51A4B1C68D4F8BC32B4F8C0221B6955
:100208001A4206D1164B1B781BB1164D2B68012BD1
:1002180014D1D4F8F432B4F8F8221B691A4217D171
:10022800114B1B78A3B11149114803F0C9FC114BBC
:1002380001221A60104B03221A7009E00B490F487B
:1002480003F0BEFC02232B600B4B03221A70E0E77D
:100258000B4B00221A70012038BD00BF8C0500200E
:10026800D5050020D8050020D1050020D444080871
:100278006004002064050020600500205804002068
:100288004C05002030B58FB0104904A801F0F6F8ED
:1002980004A801F04CF9044604A801F0A7F90546A2
:1002A80004A801F08BF902F027FDCDE902012846E8
:1002B80002F022FDCDE90001054B064A53F824302F
:1002C8004021054801F0ACF80FB030BDE005002032
:1002D8006C040020D74408089105002000000000A5
:1002E80008B50A2002F0D6F902F0F4FC14A3D3E909
:1002F800002302F055FD02F08DFF4FF0665103F028
:10030800E7F802F0F9FC00220F4B02F095FB0022FF
:100318000E4B02F045FD02F055FF02F0DBFC002217
:100328000B4B02F03DFD00220A4B02F063FE002257
:10033800094B02F083FB02F045FF084B186008BD2B
:100348006666666666660A400000E03F000059403F
:1003580000002240000014400000404074050020C6
:10036800F8B5364B364E1A681D46012A04D11920B5
:1003780001F0BAFC00233370324B334C1B68002B5E
:1003880004DD1B2001F0B0FC002323703378002B20
:1003980030D02E4B2E4F1B68D3F8BC22B3F8C03296
:1003A800126913421FD13A782A4B12B91A680132DE
:1003B8001A601B68092B09DD274A0821274801F024
:1003C8002FF801232B60264B03221A7001210720E6
:1003D80002F047F9234B01251D7000F0F5FD224B73
:1003E8003D70186004E000210720397002F039F9E7
:1003F800002333702378B3B1144B1C4D1B68D3F81A
:10040800F422B3F8F8321269134208D1154B0126C9
:100418001E7000F0D9FD144B2E70186001E0002307
:100428002B70002323701248FFF7CFFE08B1FFF7A7
:1004380029FFFFF755FF0120F8BD00BFD8050020B0
:100448007905002064050020D30500208C050020D4
:10045800D505002088050020F0440808580400202D
:10046800600500204C0500205C050020D105002017
:10047800E005002008B50121062002F0F2F800216D
:10048800062002F0EEF8024B00221A7008BD00BFE9
:100498007A0500202DE9F8432E48FFF796FE04461A
:1004A80030BB03460246014600F08AFF2346224637
:1004B8002146204600F074FF204600F09DFD0446CA
:1004C800254E00250027002000F096FD001B61EB5B
:1004D80005018F4208BF864206D31E48FFF775FE06
:1004E80010B900F00DFFEEE71A48FFF76EFE08B3EB
:1004F80000F06AFD194C47F22F58206000F000FF09
:1005080000F006FF002000F077FD2546064600278C
:100518004FF00009002000F06FFD801B61EB070120
:10052800894508BF804507D300F002FF20B900F0D5
:10053800E7FEEFE7002409E000F0FAFE0446002891
:10054800F8D000F041FD286000F0DAFE2046BDE852
:10055800F88300BFE00500208F5F0100A80B002092
:1005680008B500F031FD054B1B68C01A044B1B6829
:10057800984234BF0020012008BD00BF500500206C
:100588005404002008B5FFF7EBFF18B1BDE8084098
:10059800FFF7E6BF00F0B4FEF5E7000037B500F05E
:1005A800BFFE00F011FD43F69725044600F0C0FE9B
:1005B80040B100F009FD001BA84203D8642000F0F8
:1005C80047FFF3E70021094B47F23052084600F095
:1005D800CBFC4FF47A7000F03BFF054B0A221B68F6
:1005E8000121684601F042FD03B030BDF944080816
:1005F8007C05002038B5046805467CB16368013B7A
:1006080063605BB9236820469B689847A368013BF1
:10061800A3601BB923682046DB689847284638BD85
:1006280030B5072085B0FFF7D5FD1F4B00221B789A
:100638001E498DF8002005461D4A02A8FFF7B8FD9F
:1006480003A8FFF7D7FF082400212046FFF7C8FDBD
:10065800B4F5005F03D101F0C5FE164914E0B4F506
:10066800804F03D101F0BEFE13490DE0B4F5C04F31
:1006780003D101F0B7FE114906E047F6FF739C422B
:1006880004D101F0AFFE0E4901F0BBFB0134B4F513
:10069800004FD9D129460720FFF7A2FD09210020E4
:1006A800FFF79EFD05B030BD4D0500207B460808CC
:1006B800064508081C450808254508082E45080869
:1006C8003745080808B5044901F09DFC10B1FFF74B
:1006D800A7FF012008BD00BF6946080800B5C7B0DC
:1006E800FFF750FF1549164B0968164A1B68126830
:1006F8000291154906A8096800920191134A4FF41E
:10070800807100F08DFE124B002212491B7804A85C
:100718008DF8002006AAFFF74BFD05A8FFF76AFF32
:100728000D4B01221A7001F081FD0C4B187000F07E
:100738004BFC0B4B186047B05DF804FB6C050020C0
:10074800D805002064050020740500203C450808F1
:100758004D05002075450808D405002078050020BF
:10076800480500201FB50C4691B9FFF70BFF214B38
:10077800214A1B78214902A88DF80040FFF718FD8F
:1007880003A8FFF737FF00F01FFC1D4B18602FE090
:10079800084603F0C5F8C83801281CD8FFF7F2FE50
:1007A800184B1B7863B1134B00221B7802A88DF8F5
:1007B80000201549154AFFF7FBFC03A8FFF71AFFAD
:1007C80000F002FC0E4B00211860114B0720197035
:1007D80001F047FF0CE0074B00221B7802A88DF8B8
:1007E800002006492246FFF7E3FC03A8FFF702FFB3
:1007F80004B010BD4D050020844508088C45080844
:100808005005002090050020AB45080899450808C8
:10081800D405002030B5224985B0054601F0F3FB28
:100828000446B0B11F4B012407201C70FFF7D2FC0F
:100838001D4B0720197841F008011970FFF7D0FC0B
:10084800FFF7A0FE194B00221B788DF80020184AEC
:1008580018E01849284601F0D6FBF8B1114B0720DB
:100868001C70FFF7B7FC104B0720197801F0F7014F
:100878001970FFF7B5FCFFF785FE0C4B0E4A1B7885
:100888008DF800400D4902A8FFF792FC03A8FFF776
:10089800B1FE00F099FB0A4B1860012005B030BD8D
:1008A8006946080890050020D20500204D05002063
:1008B800B1450808E4460808C2450808D2450808B2
:1008C80050050020F0B5CDB00A2205A9006803F054
:1008D80051FAC5B205F10C03DBB2182B42D844B269
:1008E800204602F0A1FD01F03BFC29460420FFF759
:1008F80077FC01F094FC1D4F1D4E23461D4A4FF412
:100908008071386000250CA800F08AFDFFF73AFED8
:1009180033780CAA184908A88DF80050FFF748FC4E
:1009280009A8FFF767FE00F04FFB144C2060FFF7A3
:1009380029FE396808A801F02FFC089B0E4903938B
:10094800039A337806A88DF80050FFF731FC07A802
:10095800FFF750FE08A801F0E2FA00F035FB20602E
:10096800012000E000204DB0F0BD00BF540500207C
:100978004D050020D7450808EB450808500500201C
:1009880030B5154D15492A780E2303FB0212144C75
:100998008FB02078009203FB0013124A282104A884
:1009A80000F03EFD2B782370FFF7ECFD00F0C0FC53
:1009B80060B10D4B00221B7802A88DF800200B496E
:1009C80004AAFFF7F5FB03A8FFF714FE00F0FCFAF2
:1009D800074B18600FB030BD6005002004040020EC
:1009E80058050020F04508084D050020FE45080878
:1009F800500500207FB5624C2378013B032B00F2A1
:100A0800BC80DFE803F0830230655E4B1B782BB1B6
:100A18005D4B1B78022B01D0FFF7B2FF5B4B1B78B5
:100A28000BB1FFF727FD5A4B1B78002B40F09F8036
:100A3800584B1B78002B40F09A80574B1B784BB1D2
:100A480000F0C2FA554B1B68C01A554B1B689842F8
:100A580080F0908001F0EAFB524B1B78984200F03E
:100A68008C80032350E0474B1A781D462AB1464B29
:100A78001B78032B01D0FFF783FF444B01261E7020
:100A880000F056FC40B9FFF705FD28B900F09CFAC4
:100A9800454B2670186070E001F0C8FB08B900F0FB
:100AA80067FCFFF71BFE2B7863B1404B00221B78D5
:100AB80002A88DF800203E493E4AFFF779FB03A8BB
:100AC800FFF798FD00F080FA3B4B186004231BE009
:100AD8002C4B1B782BB12C4B1B78042B01D0FFF728
:100AE8004FFF364B1B780BB902230DE000F06CFA70
:100AF800334B1B68C01A334B1B6898423DD300F038
:100B080063FA294B18600123237036E01D4B1B78CC
:100B18002BB11D4B1B78012B01D0FFF731FF00F0E3
:100B280053FA214B1B68C01A274B1B68984224D3E1
:100B38001E4B00241B78254A1D4902A88DF8004049
:100B4800FFF736FB03A8FFF755FD4FF4FA6000F0F6
:100B58007FFC1F4B1B68032B02DC01F083FA0CE0BF
:100B680021460220FFF73CFBFFF718FD05E0FFF7E1
:100B7800F7FB62E7FFF73CFB6CE704B070BD00BF12
:100B88006005002090050020580500207A05002007
:100B980079050020D30500204C0500205C050020C5
:100BA8005004002078050020700500204D05002025
:100BB800AB4508080F46080850050020D40500205A
:100BC8004805002068040020000400202446080886
:100BD8006C0500200023042200F082BB0246014875
:100BE80000F074BDA916080870B50021A8B0192036
:100BF80001F026FD00211B2001F022FD002111201B
:100C080001F01EFD0021052001F01AFD0121072039
:100C180001F016FD01211D2001F012FD01211D200A
:100C280001F01FFD0121062001F00AFD0126824B7B
:100C3800314604201E7001F003FDFFF72BFC04A8C9
:100C4800002400F07DFB00237D2208A904A801F000
:100C5800ECF92346224679490194009408A800F04B
:100C68007FFB77497748FFF7B5FF2346022276498D
:100C7800764800F035FB234602227549754800F096
:100C88002FFB7549234604220968744800F028FBA5
:100C980073497448FFF79EFF73497448FFF79AFF3A
:100CA80073497448FFF79AFF73497448FFF796FF32
:100CB80073497448FFF792FF73497448FFF78EFF32
:100CC80073497448FFF78AFF50217348FFF7F4F916
:100CD800724D58B12046FFF77DFA092810D0FFF76A
:100CE8009FFC2046FFF776FA092805D000F06CF93A
:100CF8006B4B2E70186003E021460720FFF770FA4F
:100D08000220FFF767FA504C0022206028A840F81C
:100D1800942D114600F048F9039B142B06D1216845
:100D2800022001312160C9B2FFF75AFA2368052B66
:100D380005DD04210220FFF753FAFFF72FFCFFF728
:100D4800CFFAFFF79FFA0420FFF744FA00F10B03EC
:100D5800DBB2162B03D840B202F066FB00E0514824
:100D680001F0FEF901F062FA4F4B0024187001F00F
:100D780067FA4E4B4E4E18700720FFF72BFA4D4B73
:100D8800012218704C4BC0F3C00018704B490094F6
:100D98004FF0FF33112000F07DFF224600944FF002
:100DA800FF334749192000F075FF224600944FF0A1
:100DB800FF3344491B2000F06DFF2B78012B1EBF29
:100DC800364B02221A70404B1C68D4F8BC32B4F877
:100DD800C0221B691A4209D13C49214802F0F0FEA1
:100DE800022333603A4B01221A7003E039491C4848
:100DF80002F0E6FED4F8F432B4F8F8221B691A427D
:100E080009D13249184802F0DBFE334A0123136046
:100E1800324A137003E02F49134802F0D1FE3368B9
:100E280013B92D4B1B6823B104A801F078F828B03A
:100E380070BD03232B70F7E77A0500206D070808BB
:100E4800910500203C4608086C0500204346080828
:100E5800740500204E4608084C0400205A4608082D
:100E68005804002062460808600400206B46080801
:100E7800CD060808754608089D0108088046080838
:100E8800810108088B4608081D08080894460808C8
:100E9800CD080808A1460808DC05002060050020E8
:100EA800700500200000A0C078050020680500201B
:100EB800D8050020D2050020900500205D01080813
:100EC80069010808750108088C050020D444080841
:100ED80079050020AE46080864050020D3050020E7
:100EE800184B37B500251D60174B01221A7000F00A
:100EF8008BF8164B164C18601648FFF7DAF84FF6C1
:100F08009C7363804FF6FF730220A380257000F066
:100F18009BF902A840F8045D2A46294600F044F8E7
:100F2800019B1E2B04D10323237011236580A3800A
:100F38000021012000F0A0F90121042000F024F88C
:100F480003B030BD7C0500204D0500208C05002035
:100F580080050020DC05002008B5024B1B685B6C8F
:100F6800019308BD2000060808B5024B1B689B6C5E
:100F7800019308BD2000060808B5024B1B681B6BCF
:100F8800019308BDD001040808B5024B1B685B6ECD
:100F9800019308BDB801040808B5024B1B689B6E95
:100FA800019308BDB801040808B5024B1B68DB6E45
:100FB800019308BDB801040808B5024B1B685B68BB
:100FC800019308BD9C01040808B5024B1B685B69C6
:100FD800019308BD9C01040808B5024B1B68DB6936
:100FE800019308BD9C01040808B5024B1B689B6D62
:100FF800019308BD9C01040808B5024B1B68DB6D12
:10100800019308BD9C01040808B5024B1B681B68C6
:10101800019308BDB001040808B5024B1B685B6862
:10102800019308BDB001040808B5024B1B689B6812
:10103800019308BDB001040808B5024B1B68DB68C2
:10104800019308BDB001040808B5024B1B681B6971
:10105800019308BDB001040808B5024B1B689B69E1
:10106800019308BDB001040808B5024B1B68DB6991
:10107800019308BDB001040808B5024B1B681B6B3F
:10108800019308BDB001040808B5024B1B68DB6872
:10109800019308BDAC01040808B5024B1B685B69E5
:1010A800019308BDAC01040808B5024B1B689B6995
:1010B800019308BDAC01040808B5024B1B68DB6945
:1010C800019308BDAC01040808B5024B1B681B6AF4
:1010D800019308BDAC01040808B5024B1B685B6AA4
:1010E800019308BDAC01040808B5024B1B689B6A54
:1010F800019308BDAC01040808B5024B1B68DB6A04
:10110800019308BDAC01040808B5024B1B681B6BB2
:10111800019308BDAC01040808B5024B1B685B6B62
:10112800019308BDAC01040808B5024B1B681B6C91
:10113800019308BDAC01040808B5024B1B68DB69C4
:10114800019308BDB401040808B5024B1B681B6A6B
:10115800019308BDB401040808B5024B1B689B69DC
:10116800019308BDC401040808B5024B1B685B6AFB
:10117800019308BDC401040808B5024B1B689B6AAB
:10118800019308BDC401040808B5024B1B68DB6A5B
:10119800019308BDC401040808B5024B1B681B6B0A
:1011A800019308BDC401040808B5024B1B685B6BBA
:1011B800019308BDC401040808B5024B1B689B6B6A
:1011C800019308BDC401040808B5024B1B681B6CD9
:1011D800019308BDC401040808B5024B1B681B68CD
:1011E800019308BD1C00060808B5024B1B681B6963
:1011F800019308BD1C00060808B5024B1B685B6913
:10120800019308BD1C00060808B5024B1B689B69C2
:10121800019308BD1C00060808B5024B1B68DB6972
:10122800019308BD1C00060808B5024B1B681B6A21
:10123800019308BD1C00060808B5024B1B681B6813
:10124800019308BDA401040808B5024B1B685B683C
:10125800019308BDA401040808B5024B1B685B692B
:10126800019308BDA401040808B5024B1B689B69DB
:10127800019308BDA401040808B5024B1B68DB6A8A
:10128800019308BDA401040808B5024B1B68DB6C78
:10129800019308BDA401040808B5024B1B685B6DE7
:1012A800019308BDA401040808B5024B1B689B6D97
:1012B800019308BDA401040808B5034B1B68D3F8C3
:1012C8009030019308BD0000A401040808B5034B41
:1012D8001B68D3F89C30019308BD0000A4010408E2
:1012E80008B5024B1B681B68019308BDCC010408B4
:1012F80008B5024B1B685B68019308BDCC01040864
:1013080008B5024B1B689B68019308BDCC01040813
:1013180008B5024B1B68DB68019308BDCC010408C3
:1013280008B5024B1B681B69019308BDCC01040872
:1013380008B5024B1B685B69019308BDCC01040822
:1013480008B5024B1B68DB69019308BDCC01040892
:1013580008B5024B1B681B6A019308BDCC01040841
:1013680008B5024B1B685B6A019308BDCC010408F1
:1013780008B5024B1B68DB6A019308BDCC01040861
:1013880008B5024B1B681B6B019308BDCC01040810
:1013980008B5024B1B68DB6B019308BDCC01040840
:1013A80008B5024B1B685B68019308BDC8010408B7
:1013B80008B5024B1B681B69019308BDC8010408E6
:1013C80008B5024B1B685B69019308BDC801040896
:1013D80008B5024B1B681B68019308BDA0010408EF
:1013E80008B5024B1B685B68019308BDA00104089F
:1013F80008B5024B1B689B68019308BDA00104084F
:1014080008B5024B1B681B69019308BDA0010408BD
:1014180008B5024B1B689B69019308BDA00104082D
:1014280008B5024B1B68DB69019308BDA0010408DD
:1014380008B5024B1B68DB6A019308BDA0010408CC
:1014480008B5024B1B681B6B019308BDA00104087B
:101458000021FFF701BF10B5836804460BB901F0FE
:101468009CF9C3689847A3681BB10322214620460C
:1014780098472046BDE81040FEF70DBE70B51B4BDF
:10148800002503601826283388B043608560C5604E
:10149800324629460446103002F057FB2A462946B0
:1014A8002846FFF785FF08B9A0601BE029463246A9
:1014B80002A80095019502F048FB02A96846ADF81C
:1014C8000860FFF749FD10B10123A3600AE0009B03
:1014D800019AA360E2600BB90223A36002A9204627
:1014E80000F09CF8204608B070BD00BFFC46080814
:1014F80038B50B4C28252A460021204602F025FB4A
:101508004FF0FF3363602580064C074B20462C259F
:1015180040F8043B2A46002102F017FBA58038BD9D
:1015280010060020E0050020F04608087047007DFE
:101538007047000008B5037D1BB18069B0F1004F0A
:1015480001D1002008BD01F06FFF024902F074F8D4
:1015580008BD00BF0000C84208B5037D1BB1006A82
:10156800B0F1004F01D1002008BD01F05DFF024934
:1015780002F062F808BD00BF0000C84270B50D4611
:1015880006460A228168284600F093FC2C2104466E
:10159800284600F027FC0A220444F168284600F097
:1015A80088FC204470BDA0F10400FFF7E7BF10B528
:1015B8000446FEF770FD204610BD000008B5037D07
:1015C8005BB1406A002808DB01F02EFF044902F0F5
:1015D80033F8044901F07CFF08BD034808BD00BF8B
:1015E80000FF7F470000C842000080BF08B5037DA8
:1015F8005BB1C069002808DB01F016FF044902F05E
:101608001BF8044901F064FF08BD034808BD00BF8A
:1016180000FF7F470000C842000080BF30B50D467C
:1016280000F110040FCD0FC495E8030084E803000F
:10163800012030BD70470020704710B50446FEF702
:101648002AFD204610BD08B508B1FFF7F6FF08BD12
:1016580010B58368044613B1032201469847204613
:1016680010BD38B5C468D4B12378022B02D1E06824
:10167800FFF7B6FE65682DB12846FFF7E9FF284653
:10168800FEF709FDA5682DB12846FFF7E1FF2846BA
:10169800FEF701FD2046BDE83840FEF7FCBC38BD2A
:1016A80010B588B00446684600F080FC694604A876
:1016B80000F09EFC04A8A047044604A800F02FFCF4
:1016C800684600F02CFC204608B010BDF0B507466F
:1016D8000E46154685B0102422460021684602F0C1
:1016E80034FA002269461046ADF800400297039686
:1016F8000195FFF7FDFD05B0F0BD13B5044691E86F
:10170800050000234B600B602060626001A8019314
:101718000093FEF76FFF204602B010BD0B68036010
:1017280013B15A6801325A607047F7B50C4606463D
:101738000F4654F8043B02AD45F8083D214601A880
:10174800FFF7ECFF29463046FFF7D7FF01A8FEF761
:1017580051FF2046FEF74EFF3846FEF79CFC304608
:1017680003B0F0BD13B50B46044603C88DE803006B
:1017780093E8030084E803009DE8030083E803007E
:1017880002B010BD826810B50AB901F006F8C36846
:10179800BDE81040184708B5006800F11001FFF7D0
:1017A800F1FF08BD826810B50AB900F0F6FFC368FA
:1017B800BDE81040184708B5006800F11001FFF7B0
:1017C800F1FF08BD38B5002383608B6804460D46D9
:1017D8002BB102229847EB68E360AB68A360204610
:1017E80038BD00002DE9F0414FF69C7304684FF0B6
:1017F800020086B0B1F904208B8000230F688DF8B1
:1018080000300B60D4E84F1F994203D1C4E8450F5C
:10181800002DF7D102D08DF800106BE014F10C0503
:101828001CBFE7602282BFF35F8F18BF1F460123EA
:101838006370BFF35F8F04F10803002053E8006F63
:1018480043E80002002AF9D1BFF35F8F002E51D080
:10185800FFF71AFD20B129463046FFF793FF43E012
:1018680031466846FFF7AEFFE068B4F9105008B19A
:1018780002F0AEF904901020ADF81450FEF709FC00
:10188800054630B34FF00008C0F808801820FEF76E
:1018980000FC0446C0B1C0F8088001466846FFF75E
:1018A80061FF029BA268A360039B0292E268E36067
:1018B800BDF814300392A3824FF69C73ADF8143030
:1018C800049BCDF8108023610D4B2C60EB600D4B11
:1018D800AB600498FFF784FD6846FFF7B9FE002265
:1018E80029460948FFF7D8FC3046FFF7B1FE3046D5
:1018F800FEF7D1FB3846FFF773FD06B0BDE8F0816F
:101908009F170808FD1908085F1408082DE9F04F0B
:101918008BB007AD4FF0000B0646994614200C23F8
:101928000F4690469DF850A0C5F804B0C5F808B019
:101938000793FEF7AEFB044638B180F800B080F894
:1019480001B0C0F804B0C0F808B000231020039418
:101958000493FEF79EFB28B1012343608360234B69
:10196800C4600360224B049008200893FEF791FBA3
:10197800044628B1039B04A940F8043BFFF7CEFEB8
:1019880000955FFA8AF34A46414638460994FFF7BC
:10199800DFFCB8B9039B5B7803F0FF0293B94FF6FD
:1019A8009C7305A903A80592ADF81830FFF71AFF34
:1019B8000598FFF715FD05A80999FFF7B6FE06A8D3
:1019C800FEF718FE039B04A906A80593FFF7A6FED9
:1019D80005A93046FFF791FE06A8FEF70BFE04A8FE
:1019E800FEF708FE30460BB0BDE8F08F3047080818
:1019F800651B0808022AF8B5044606D0032A17D042
:101A0800012A20D10B6803601DE018200E68FEF73C
:101A180040FB054650B13146FFF7D4FE3069B6F9B0
:101A2800147008B102F0D4F82861AF8225600AE08A
:101A3800046844B12069FFF7D3FC2046FFF708FE8D
:101A48002046FEF728FB0020F8BD38B50023836048
:101A58008B6804460D462BB102229847EB68E36079
:101A6800AB68A360204638BD022A70B5044606D08C
:101A7800032A11D0012A17D10B68036014E014203F
:101A88000E68FEF706FB054620B13146FFF7DDFF7D
:101A9800337C2B74256007E004682CB12046FFF7DF
:101AA800D7FD2046FEF7F7FA002070BDF0B50C46CA
:101AB800BFF35F8F87B0002350E8006F40E8003223
:101AC800002AF9D1BFF35F8F002E3ED01846FFF7EA
:101AD800DBFB074620B121463046FFF763FE2EE0C8
:101AE800314601A8FFF7B1FF237810208DF8143094
:101AF800FEF7CFFA0546D0B187601420FEF7C9FA81
:101B0800044678B18760014601A8FFF72BFE039BC6
:101B1800A268A360049B0392E268E3609DF8143016
:101B2800049223740A4B2C60EB600A4BAB6001A84B
:101B3800FFF78EFD002229460748FFF7ADFB304628
:101B4800FFF786FD3046FEF7A6FA07B0F0BD00BFE6
:101B5800BF170808711A08085F14080830B504464A
:101B680085B00D4668461146FFF7DFFD7CB124B20B
:101B780028460DB102F02CF8029002A96846ADF88B
:101B88000C40FFF72FFE0298FFF72AFC1DE04FF0EC
:101B9800010200988DF80840D0E84F3FA34203D1D6
:101BA800C0E8412F0029F7D102D08DF808300CE0A9
:101BB80010F10C014FF0010318BF0373BFF35F8FDF
:101BC800043000F8033CFFF771FF01A8FEF712FD8F
:101BD80005B030BD7047F8B5064615460C468F1857
:101BE800BC4206D0336814F8011B9B6830469847FE
:101BF800F6E72846F8BD0022007CFFF765BA002109
:101C0800007CFFF769BA0021007CFFF76DBA00215C
:101C1800007CFFF771BA0021007CFFF775BA10B598
:101C28000446FEF738FA204610BD000010B50446F9
:101C380008464FF47A73A360044B00212074616056
:101C48002360FFF771FA204610BD00BF4C47080813
:101C580000231A461946007CFFF716BA13B500246C
:101C6800007C0094FFF718FAC0B202B010BD01233F
:101C7800FFF7F4BF0022007CFFF716BA0022007CB1
:101C8800FFF71ABA0121FFF7F9BF0021007CFFF71F
:101C980043BA004707282DE9FF4105460F469046FD
:101CA8001E464FF0000419D0FFF7DEF9A6424FF0A8
:101CB800040303948DF80C30A2BF9DF8283003ACC0
:101CC8008DF80E302846009443463A460549A8BF89
:101CD8008DF80D60FFF7C0F9012000E0204604B040
:101CE800BDE8F0819B1C0808072870B505460FD091
:101CF800FFF7BAF9074B53F825601C462EB130465A
:101D0800FFF7A6FC3046FEF7C6F9002344F8253055
:101D180070BD00BF38060020704710B50446FEF7B6
:101D2800BAF9204610BDF8B50F4600F10806051DA2
:101D3800002416F8011D0A22384600F096F8AE4233
:101D4800044407D0002CF4D02E21384600F04AF87D
:101D58000444EEE72046F8BD10B59DF8084044EA73
:101D6800032343EA024242EA0161416010BD0000D8
:101D780037B5044D05609DF818500095FFF7ECFF46
:101D880003B030BD74470808014A024B1A60704717
:101D980033480808F4060020F8B506460D468F18A3
:101DA8000024BD420CD0336815F8011B9B683046EF
:101DB8009847002801DB0444F3E7002C08BF0446D9
:101DC8002046F8BD70B505460C46084649B101F0F5
:101DD8001AFF2B68024621462846BDE87040DB689A
:101DE800184770BD03689B68184738B50D2105462C
:101DF800FFF7F8FF0A2104462846FFF7F3FF2044BF
:101E080038BD38B50546FFF7DDFF04462846FFF71D
:101E1800ECFF204438BD012A98BF0A2230B50B4692
:101E28008BB000218DF824100DF12304B3FBF2F5DB
:101E380005FB1233DBB2092B94BF30333733DBB2E7
:101E4800214604F801392B46002DEFD1FFF7BAFFE0
:101E58000BB030BD10B422B90368C9B29B6810BC7E
:101E68001847D2B210BCFFF7D6BFFFF7F3BF2DE972
:101E7800F04107460E4615462AB9BDE8F041036809
:101E8800C9B29B6818470A2A02D1002901DA04E07E
:101E9800D2B2BDE8F041FFF7BEBF2D21FFF7A2FF88
:101EA8002A46044671423846FFF7B5FF2044BDE88C
:101EB800F081FFF7DCBF10B50446FFF7C9FB2046E9
:101EC80010BD0000034800238360034A034900F063
:101ED8005FBC00BFF806002044050020BF1E0808AC
:101EE800704710B50446FEF7D6F8204610BD00002E
:101EF80070B504460E46074B0025036040F80C5F9A
:101F0800FFF73AF830462671FFF716F9A560204624
:101F180070BD00BF644808080079FFF715B910B50F
:101F280004460068FFF75CFA204610BD10B5044669
:101F3800006808B1FFF754FA00232360A3606360C8
:101F480010BD38B504460D4600680131FFF750FA58
:101F580010B184E82100012038BD10B5036804469B
:101F680013B143688B4207D22046FFF7EAFF20B13E
:101F7800A3680BB922681370012010BD70B50E4616
:101F8800114604461546FFF7E8FF18B92046FFF743
:101F9800CDFF09E02A463146A560206801F0CAFD58
:101FA8002268A3680021D154204670BD38B50023AB
:101FB800044603604360836003730D4639B10846E5
:101FC80001F021FE294602462046FFF7D7FF2046AA
:101FD80038BD884210B50B46044607D0096819B1C8
:101FE8009A68FFF7CBFF01E0FFF7A0FF204610BD7E
:101FF80010B5044600230360436083600373FFF752
:10200800E8FF204610BD08B582680B4612B919B919
:10201800012008BD11B90368187802E0006801F0D2
:10202800C5FDB0FA80F0400908BD70B50E469AB1FA
:1020380091B185689D4202D800230B7070BD541E73
:10204800ED1AAC4228BF2C46016822461944304696
:1020580001F0F6FD0023335570BD014600228C20A7
:10206800FEF79ABF0020FFF7F8BF000010B504463E
:10207800084611461A460023FFF7F6F8074B0022D8
:102088001A704FF69C725A804FF6FF729A801A683F
:102098009B882260A380204610BD00BF080700204F
:1020A8004FF69C7337B50D4C002563804FF6FF73D0
:1020B8002846A3802570FFF7C7F802A840F8045DFA
:1020C8002A462946FEF770FF019B1E2B04D10323E5
:1020D800237011236580A38003B030BD080700205A
:1020E800F0B5144B144F1E68144B064418683B682F
:1020F80006449E428BB01BD00AA840F8286D01F018
:1021080021FC0446436901AD03F26C7343610FCCB3
:102118000FC50FCC0FC5D4F800E0094CC5F800E096
:1021280001AD0FCD0FC40FCD0FC43E60C4F800E061
:102138000BB0F0BD400700203C0700203807002006
:102148001007002008B50020FFF71AF928B1FFF79B
:10215800EFF880F00100C0B208BD012008BD000002
:1021680010B50949044601F051FB60B907492046FA
:1021780001F06AFB38B90649204601F0A9F901F0D7
:102188006DFB044B186010BD000040C100006041A9
:10219800000061454007002037B50E4B04461B6818
:1021A80002A819440C4B1B68194440F8041D01F09F
:1021B800C9FB01F079FB054601F025FD0023284401
:1021C80000F8013C29462046FFF7F0FE204603B000
:1021D80030BD00BF400700203807002010B50020A0
:1021E800FEF702FF044668B9FFF726F801280BD16D
:1021F8002046FFF759F838B9FFF7A4FF30B9FFF7C1
:102208007FF8F9E7012010BD002010BDFFF79AFF05
:102218000020FEF7E9FE003018BF012010BD08B508
:10222800FFF7DCFFBDE80840FEF7D6BE08B5FFF7AC
:10223800F6FFFFF755FF014B986808BD100700200F
:1022480008B5FFF7ECFFFFF74BFF014BD86808BD57
:1022580010070020024B1A68024B1A60704700BF33
:102268008C04002034070020704741747047007CBC
:10227800FEF7AABF007CFEF77FBF007CFEF78CBF8D
:10228800007CFEF781BF007CFEF78EBF10B50446C8
:10229800FDF701FF204610BD70B5457C04460E468B
:1022A80025B9007CFEF790FF002805DD3146207C2B
:1022B800BDE87040FEF758BF284670BD10B504460B
:1022C80008461146002262604FF47A72A260054AFD
:1022D80020742260012262741A46FEF73DFF2046F0
:1022E80010BD00BF9C480808007CFEF765BF0000D1
:1022F80038B50C4D296811F0010411D12846FDF7B5
:10230800CCFE68B1084A2146084B0948FFF7D6FFBA
:102318002846FDF7C7FE074A0749054800F038FA7E
:10232800034838BDDC070020E007002058070020DC
:1023380044070020440500207122080841747047B2
:1023480070470021007CFEF75FBF0121007CFEF78B
:102358005BBF007CFEF750BF007CFEF745BF38B579
:102368000446007C0D46FEF747FF002801DC607C30
:1023780020B12946207CFEF74FFF012038BD007CA4
:10238800FEF752BF10B50446FDF785FE204610BD86
:1023980010B50446002363604FF47A73A360054BBD
:1023A800084623600123217463741146FEF714FF65
:1023B800204610BDCC48080810B504461422002158
:1023C80001F0C3FB054B20466360054BE36040F218
:1023D800011323818123238210BD00BFE908002057
:1023E8006808002030B50E4D87B001A8FFF7E4FF5C
:1023F800296811F0010410D12846FDF74EFE60B19E
:1024080001AA21460748FFF7C3FF2846FDF74AFE01
:10241800054A0649034800F0BBF9024807B030BD39
:1024280064080020EC09002044050020492308081E
:1024380010B504461422002101F087FB054B204605
:102448006360054BE36040F20113238181232382FB
:1024580010BD00BF9C0A0020040A002010B50E4CD5
:1024680086B001A8FFF7E4FF2368DB0710D42046F5
:10247800FDF713FE60B101AA01210848FFF788FFA4
:102488002046FDF70FFE064A0649044800F080F989
:10249800024806B010BD00BF000A0020880A0020CC
:1024A800440500204923080808B5184B33B1FFF745
:1024B80099FF03681B69984700281EDC144B33B149
:1024C800FFF716FF03681B699847002818DC114BB3
:1024D8000BB1AFF30080104B0BB1AFF300800F4B83
:1024E8000BB1AFF300800E4B7BB1FFF7B7FF03686A
:1024F8001B699847002806DC08BDAFF30080DDE7BC
:10250800AFF30080E3E7AFF3008008BD00000000F0
:1025180000000000000000000000000000000000B3
:102528000000000008B5FFF7BFFFFEF74DFD014BA7
:10253800186008BDA80B00200248034A0349121A74
:1025480001F0F8BA0040024004400240904B0808ED
:1025580007B5002300931A466FF07701FEF7B6FE21
:1025680003B05DF804FB000007B543880A2B08D0C8
:10257800502B09D1094B1B683BB103B05DF804EB44
:102588001847FFF7E5FF06E0002300931A466FF0AF
:102598007701FEF79BFE03B05DF804FBA00B00205B
:1025A80038B5104C104D2368AB42104B0CBF0122BC
:1025B80000221A7002D0FFF7BFFF2560FEF7FCFC6F
:1025C80001F0CCFA0A4B1BB1FEF7F6FCAFF3008022
:1025D80000210748FEF7DCFEBDE838400021054829
:1025E800FEF76ABE004002401E1C279AA40B00207A
:1025F800000000007125080810B504460F48FFF7D1
:102608008BFC28B1A4F10D03022B01D8002010BDCA
:1026180000F058F8FFF739FB08B1012CF6D9FFF79D
:1026280067FEFFF761FE18B1A4F11203012BEDD983
:102638002E2C8CBF0020012010BD00BFCC0B002029
:102648002E2838B504460D460AD8FF2908D0FFF7CA
:10265800D3FF28B129462046BDE83840FEF7E4BC40
:1026680038BD38B504460D46FEF7E6FCFF2810D005
:10267800062804D84D2323FA00F0C30709D42046BE
:10268800FFF7BAFF28B129462046BDE83840FEF7D3
:10269800DBBC38BD10B5044609289CBF0A34A4B277
:1026A8002046FFF7A9FF50B103212046FEF7B4FCEE
:1026B800032804D12046BDE81040FEF7DDBC002009
:1026C80010BD000038B50B4D296811F001040FD179
:1026D8002846FDF7E2FC58B121460748FFF7A6FA5D
:1026E8002846FDF7DFFC054A0549034800F050F885
:1026F800014838BDAC0B0020B00B00204405002079
:10270800DD1B080813B5084C00231A461946009328
:102718002046FFF72DFB2046044A054902B0BDE8D4
:10272800104000F035B800BFC40B0020440500205D
:10273800211D080870B5114E114D124C002130466C
:10274800FFF7D6FB3046104E2A46214600F020F807
:1027580001213046FFF7CCFB30460C4E2A46214675
:1027680000F016F802213046FFF7C2FB2A46214640
:102778003046BDE8704000F00BB800BFCC0B00201D
:1027880044050020E91E0808DC0B0020EC0B0020A3
:102798000B460146184601F0C7B808B5FEF748FED3
:1027A800244B1A68D0075CBF01221A60224B1A68B2
:1027B800D1075CBF01221A60204B1A68D2075CBFA0
:1027C80001221A601E4B1A68D0075CBF01221A60EA
:1027D8001C4B1A68D1075CBF01221A601A4B1A6891
:1027E800D2075CBF01221A60184B1A68D0075CBF79
:1027F80001221A60164B1A68D1075CBF01221A60C1
:10280800144B1A68D2075CBF01221A60124B1A686F
:10281800D0075CBF01221A60104B1A68D1075CBF51
:1028280001221A600E4B1A68D2075CBF01221A6097
:10283800704700BF280C0020240C0020200C00202A
:102848001C0C0020180C0020140C0020100C002078
:102858000C0C0020080C0020040C0020000C0020A8
:10286800FC0B0020184B1A68D1075CBF01221A60C4
:10287800164B1A68D2075CBF01221A60144B1A68FB
:10288800D0075CBF01221A60124B1A68D1075CBFDF
:1028980001221A60104B1A68D2075CBF01221A6025
:1028A8000E4B1A68D0075CBF01221A600C4B1A68DD
:1028B800D1075CBF01221A600A4B1A68D2075CBFB5
:1028C80001221A60704700BF480C0020440C002009
:1028D800400C00203C0C0020380C0020340C002058
:1028E800300C00202C0C0020184B1A68D1075CBF54
:1028F80001221A60164B1A68D2075CBF01221A60BF
:10290800144B1A68D0075CBF01221A60124B1A6870
:10291800D1075CBF01221A60104B1A68D2075CBF4E
:1029280001221A600E4B1A68D0075CBF01221A6098
:102938000C4B1A68D1075CBF01221A600A4B1A684F
:10294800D2075CBF01221A60704700BF680C0020E4
:10295800640C0020600C00205C0C0020580C002047
:10296800540C0020500C00204C0C0020244B1A68FA
:10297800D0075CBF01221A60224B1A68D1075CBFDE
:1029880001221A60204B1A68D2075CBF01221A6024
:102998001E4B1A68D0075CBF01221A601C4B1A68CC
:1029A800D1075CBF01221A601A4B1A68D2075CBFB4
:1029B80001221A60184B1A68D0075CBF01221A60FE
:1029C800164B1A68D1075CBF01221A60144B1A68AB
:1029D800D2075CBF01221A60124B1A68D0075CBF8D
:1029E80001221A60104B1A68D1075CBF01221A60D5
:1029F8000E4B1A68D2075CBF01221A60704700BFED
:102A0800980C0020940C0020900C00208C0C0020C6
:102A1800880C0020840C0020800C00207C0C0020F6
:102A2800780C0020740C0020700C00206C0C002026
:102A380081F0004102E000BF83F0004330B54FEA67
:102A480041044FEA430594EA050F08BF90EA020FD4
:102A58001FBF54EA000C55EA020C7FEA645C7FEA67
:102A6800655C00F0E2804FEA5454D4EB5555B8BF8A
:102A78006D420CDD2C4480EA020281EA030382EAFB
:102A8800000083EA010180EA020281EA0303362D8D
:102A980088BF30BD11F0004F4FEA01314FF4801C60
:102AA8004CEA113102D0404261EB410113F0004F72
:102AB8004FEA03334CEA133302D0524263EB430329
:102AC80094EA050F00F0A780A4F10104D5F1200EC7
:102AD8000DDB02FA0EFC22FA05F2801841F1000122
:102AE80003FA0EF2801843FA05F359410EE0A5F1F6
:102AF80020050EF1200E012A03FA0EFC28BF4CF027
:102B0800020C43FA05F3C01851EBE37101F00045DC
:102B180007D54FF0000EDCF1000C7EEB00006EEBE9
:102B28000101B1F5801F1BD3B1F5001F0CD3490873
:102B38005FEA30004FEA3C0C04F101044FEA4452CA
:102B480012F5800F80F09A80BCF1004F08BF5FEA51
:102B5800500C50F1000041EB045141EA050130BD31
:102B68005FEA4C0C404141EB010111F4801FA4F1D4
:102B78000104E9D191F0000F04BF01460020B1FA29
:102B880081F308BF2033A3F10B03B3F120020CDA61
:102B98000C3208DD02F1140CC2F10C0201FA0CF03F
:102BA80021FA02F10CE002F11402D8BFC2F1200CA4
:102BB80001FA02F120FA0CFCDCBF41EA0C0190405A
:102BC800E41AA2BF01EB0451294330BD6FEA0404A3
:102BD8001F3C1CDA0C340EDC04F11404C4F120028E
:102BE80020FA04F001FA02F340EA030021FA04F3A0
:102BF80045EA030130BDC4F10C04C4F1200220FAF7
:102C080002F001FA04F340EA0300294630BD21FA34
:102C180004F0294630BD94F0000F83F4801306BFFA
:102C280081F480110134013D4EE77FEA645C18BFEE
:102C38007FEA655C29D094EA050F08BF90EA020F85
:102C480005D054EA000C04BF1946104630BD91EA7D
:102C5800030F1EBF0021002030BD5FEA545C05D180
:102C68004000494128BF41F0004130BD14F58004BF
:102C78003CBF01F5801130BD01F0004545F0FE4133
:102C880041F470014FF0000030BD7FEA645C1ABF68
:102C9800194610467FEA655C1CBF0B46024650EA9F
:102CA800013406BF52EA033591EA030F41F40021CB
:102CB80030BD00BF90F0000F04BF0021704730B551
:102CC8004FF4806404F132044FF000054FF0000126
:102CD80050E700BF90F0000F04BF0021704730B5E7
:102CE8004FF4806404F1320410F0004548BF4042BC
:102CF8004FF000013EE700BF42004FEAE2014FEA11
:102D080031014FEA02701FBF12F07F4393F07F4FEB
:102D180081F06051704792F0000F14BF93F07F4F1D
:102D2800704730B54FF4607401F0004521F0004160
:102D380020E700BF50EA010208BF704730B54FF0E6
:102D480000050AE050EA010208BF704730B511F0EB
:102D5800004502D5404261EB41014FF4806404F123
:102D680032045FEA915C3FF4DCAE4FF003025FEAA5
:102D7800DC0C18BF03325FEADC0C18BF033202EB2D
:102D8800DC02C2F1200300FA03FC20FA02F001FA87
:102D980003FE40EA0E0021FA02F11444C1E600BF26
:102DA80070B54FF0FF0C4CF4E06C1CEA11541DBFD9
:102DB8001CEA135594EA0C0F95EA0C0F00F0DEF8A4
:102DC8002C4481EA030621EA4C5123EA4C5350EA89
:102DD800013518BF52EA033541F4801143F48013DA
:102DE80038D0A0FB02CE4FF00005E1FB02E506F06B
:102DF8000042E0FB03E54FF00006E1FB03569CF0C0
:102E0800000F18BF4EF0010EA4F1FF04B6F5007FC5
:102E180064F5407404D25FEA4E0E6D4146EB060637
:102E280042EAC62141EA55514FEAC52040EA5E50C0
:102E38004FEACE2EB4F1FD0C88BFBCF5E06F1ED86A
:102E4800BEF1004F08BF5FEA500E50F1000041EBA1
:102E5800045170BD06F0004646EA010140EA02004E
:102E680081EA0301B4EB5C04C2BFD4EB0C0541EA70
:102E7800045170BD41F480114FF0000E013C00F385
:102E8800AB8014F1360FDEBF002001F0004170BDA9
:102E9800C4F10004203C35DA0C341BDC04F11404C2
:102EA800C4F1200500FA05F320FA04F001FA05F24E
:102EB80040EA020001F0004221F0004110EBD3701B
:102EC80021FA04F642EB06015EEA430E08BF20EA47
:102ED800D37070BDC4F10C04C4F1200500FA04F3EA
:102EE80020FA05F001FA04F240EA020001F000417C
:102EF80010EBD37041F100015EEA430E08BF20EAEF
:102F0800D37070BDC4F1200500FA05F24EEA020E36
:102F180020FA04F301FA05F243EA020321FA04F065
:102F280001F0004121FA04F220EA020000EBD3701C
:102F38005EEA430E08BF20EAD37070BD94F0000F1C
:102F48000FD101F00046400041EB010111F4801F50
:102F580008BF013CF7D041EA060195F0000F18BF01
:102F6800704703F00046520043EB030313F4801F3D
:102F780008BF013DF7D043EA0603704794EA0C0FF7
:102F88000CEA135518BF95EA0C0F0CD050EA41060D
:102F980018BF52EA4306D1D181EA030101F000418A
:102FA8004FF0000070BD50EA410606BF10461946B2
:102FB80052EA430619D094EA0C0F02D150EA0136BE
:102FC80013D195EA0C0F05D152EA03361CBF1046FF
:102FD80019460AD181EA030101F0004141F0FE419E
:102FE80041F470014FF0000070BD41F0FE4141F422
:102FF800780170BD70B54FF0FF0C4CF4E06C1CEA22
:1030080011541DBF1CEA135594EA0C0F95EA0C0FD6
:1030180000F0A7F8A4EB050481EA030E52EA033591
:103028004FEA013100F088804FEA03334FF08055B2
:1030380045EA131343EA12634FEA022245EA1115DF
:1030480045EA10654FEA00260EF000419D4208BF90
:10305800964244F1FD0404F5407402D25B084FEA3D
:103068003202B61A65EB03055B084FEA32024FF4E9
:1030780080104FF4002CB6EB020E75EB030E22BF46
:10308800B61A754640EA0C005B084FEA3202B6EB06
:10309800020E75EB030E22BFB61A754640EA5C00B5
:1030A8005B084FEA3202B6EB020E75EB030E22BF45
:1030B800B61A754640EA9C005B084FEA3202B6EB46
:1030C800020E75EB030E22BFB61A754640EADC0005
:1030D80055EA060E18D04FEA051545EA16754FEA67
:1030E80006164FEAC30343EA52734FEAC2025FEA85
:1030F8001C1CC0D111F4801F0BD141EA00014FF014
:1031080000004FF0004CB6E711F4801F04BF0143E4
:103118000020B4F1FD0C88BFBCF5E06F3FF6AFAE00
:10312800B5EB030C04BFB6EB020C5FEA500C50F190
:10313800000041EB045170BD0EF0004E4EEA113113
:1031480014EB5C04C2BFD4EB0C0541EA045170BD1A
:1031580041F480114FF0000E013C90E645EA060E5E
:103168008DE60CEA135594EA0C0F08BF95EA0C0F8C
:103178003FF43BAF94EA0C0F0AD150EA01347FF4D4
:1031880034AF95EA0C0F7FF425AF104619462CE7AB
:1031980095EA0C0F06D152EA03353FF4FDAE10460E
:1031A800194622E750EA410618BF52EA43067FF45F
:1031B800C5AE50EA41047FF40DAF52EA43057FF4EF
:1031C800EBAE12E74FEA410212F5001215D211D503
:1031D8006FF47873B3EB625212D94FEAC12343F00C
:1031E800004343EA505311F0004F23FA02F018BF8E
:1031F800404270474FF00000704750EA013005D157
:1032080011F0004008BF6FF0004070474FF0000019
:10321800704700BF4FEA4102B2F1E04324BFB3F563
:10322800001CDCF1FE5C0DD901F0004C4FEAC00235
:103238004CEA5070B2F1004F40EB830008BF20F019
:103248000100704711F0804F21D113F13872BCBFD3
:1032580001F00040704741F480114FEA5252C2F128
:103268001802C2F1200C10FA0CF320FA02F018BF71
:1032780040F001004FEAC1234FEAD32303FA0CFCC4
:1032880040EA0C0023FA02F34FEA4303CCE77FEA53
:10329800625307D150EA01331EBF4FF0FE4040F49D
:1032A8004000704701F0004040F0FE4040F400004C
:1032B800704700BF80F0004002E000BF81F000418D
:1032C80042001FBF5FEA410392EA030F7FEA226CC4
:1032D8007FEA236C6AD04FEA1262D2EB1363C1BF54
:1032E800D218414048404140B8BF5B42192B88BFC3
:1032F800704710F0004F40F4000020F07F4018BFE6
:10330800404211F0004F41F4000121F07F4118BF05
:10331800494292EA030F3FD0A2F1010241FA03FCAD
:1033280010EB0C00C3F1200301FA03F100F0004395
:1033380002D5494260EB4000B0F5000F13D3B0F15D
:10334800807F06D340084FEA310102F10102FE2ACC
:1033580051D2B1F1004F40EBC25008BF20F001003C
:1033680040EA03007047490040EB000010F4000FEA
:10337800A2F10102EDD1B0FA80FCACF1080CB2EB7D
:103388000C0200FA0CF0AABF00EBC25052421843DC
:10339800BCBFD0401843704792F0000F81F4000181
:1033A80006BF80F400000132013BB5E74FEA410354
:1033B8007FEA226C18BF7FEA236C21D092EA030FC0
:1033C80004D092F0000F08BF0846704790EA010F3A
:1033D8001CBF0020704712F07F4F04D1400028BF67
:1033E80040F00040704712F100723CBF00F5000049
:1033F800704700F0004343F0FE4040F4000070477F
:103408007FEA226216BF08467FEA2363014642022A
:1034180006BF5FEA412390EA010F40F4800070473D
:103428004FF0000304E000BF10F0004348BF4042E3
:103438005FEA000C08BF704743F0964301464FF01F
:1034480000001CE050EA010208BF70474FF000037B
:103458000AE000BF50EA010208BF704711F00043BC
:1034680002D5404261EB41015FEA010C02BF84468C
:103478000146002043F0B64308BFA3F18053A3F5EB
:103488000003BCFA8CF2083AA3EBC25310DB01FA32
:1034980002FC634400FA02FCC2F12002BCF1004FB6
:1034A80020FA02F243EB020008BF20F00100704747
:1034B80002F1200201FA02FCC2F1200250EA4C009B
:1034C80021FA02F243EB020008BF20EADC707047E1
:1034D8004FF0FF0C1CEAD0521EBF1CEAD15392EAEF
:1034E8000C0F93EA0C0F6FD01A4480EA010C4002CB
:1034F80018BF5FEA41211ED04FF0006343EA501025
:1035080043EA5111A0FB01310CF00040B1F5000F66
:103518003EBF490041EAD3715B0040EA010062F115
:103528007F02FD2A1DD8B3F1004F40EBC25008BFFF
:1035380020F00100704790F0000F0CF0004C08BF1D
:1035480049024CEA502040EA51207F3AC2BFD2F1EA
:10355800FF0340EAC250704740F400004FF00003F8
:10356800013A5DDC12F1190FDCBF00F00040704732
:10357800C2F10002410021FA02F1C2F1200200FA70
:1035880002FC5FEA310040F1000053EA4C0308BF37
:1035980020EADC70704792F0000F00F0004C02BF88
:1035A800400010F4000F013AF9D040EA0C0093F003
:1035B800000F01F0004C02BF490011F4000F013B5D
:1035C800F9D041EA0C018FE70CEAD15392EA0C0FCB
:1035D80018BF93EA0C0F0AD030F0004C18BF31F036
:1035E800004CD8D180EA010000F00040704790F00C
:1035F800000F17BF90F0004F084691F0000F91F0B0
:10360800004F14D092EA0C0F01D142020FD193EA75
:103618000C0F03D14B0218BF084608D180EA0100FD
:1036280000F0004040F0FE4040F40000704740F0D9
:10363800FE4040F4400070474FF0FF0C1CEAD052A7
:103648001EBF1CEAD15392EA0C0F93EA0C0F69D003
:10365800A2EB030280EA010C49024FEA402037D06E
:103668004FF0805343EA111143EA10130CF0004065
:103678008B4238BF5B0042F17D024FF4000C8B4255
:1036880024BF5B1A40EA0C00B3EB510F24BFA3EB35
:10369800510340EA5C00B3EB910F24BFA3EB910305
:1036A80040EA9C00B3EBD10F24BFA3EBD10340EA5F
:1036B800DC001B0118BF5FEA1C1CE0D1FD2A3FF6A5
:1036C80050AF8B4240EBC25008BF20F0010070475A
:1036D8000CF0004C4CEA50207F32C2BFD2F1FF03FD
:1036E80040EAC250704740F400004FF00003013A2E
:1036F80037E792F0000F00F0004C02BF400010F4D2
:10370800000F013AF9D040EA0C0093F0000F01F0E5
:10371800004C02BF490011F4000F013BF9D041EA07
:103728000C0195E70CEAD15392EA0C0F08D142023A
:103738007FF47DAF93EA0C0F7FF470AF084676E70D
:1037480093EA0C0F04D14B023FF44CAF08466EE7E6
:1037580030F0004C18BF31F0004CCAD130F00042B4
:103768007FF45CAF31F000437FF43CAF5FE700BF0C
:103778004FF0FF3C06E000BF4FF0010C02E000BF35
:103788004FF0010C4DF804CD4FEA40024FEA4103D7
:103798007FEA226C18BF7FEA236C11D001B052EA8D
:1037A800530C18BF90EA010F58BFB2EB030088BF53
:1037B800C81738BF6FEAE17018BF40F001007047C2
:1037C8007FEA226C02D15FEA402C05D17FEA236CA4
:1037D800E4D15FEA412CE1D05DF8040B704700BFEB
:1037E800844608466146FFE70FB5FFF7C9FF002882
:1037F80048BF10F1000F0FBD4DF808EDFFF7F4FFBB
:103808000CBF012000205DF808FB00BF4DF808ED53
:10381800FFF7EAFF34BF012000205DF808FB00BF76
:103828004DF808EDFFF7E0FF94BF012000205DF898
:1038380008FB00BF4DF808EDFFF7D2FF94BF012049
:1038480000205DF808FB00BF4DF808EDFFF7C8FF42
:1038580034BF012000205DF808FB00BF4FEA40029A
:10386800B2F1FE4F0FD34FF09E03B3EB12620DD9A6
:103878004FEA002343F0004310F0004F23FA02F010
:1038880018BF404270474FF00000704712F1610FB7
:1038980001D1420205D110F0004008BF6FF000408E
:1038A80070474FF000007047094B70B51C6806461A
:1038B800256C3DB91A20FDF78BFD1A222064294694
:1038C80000F043F9216C3046BDE8704000F002B8C2
:1038D800F404002010B50C46416986B001F26C7101
:1038E800036982690491016803EB4303039141680A
:1038F80002EB4202029181680191C1682046009161
:1039080004490B4404490A440449FDF779FD20465B
:1039180006B010BD09490808F44808082D490808E8
:103928000A22002100F026BA10B5054C13462CB126
:103938000A4601460220AFF3008010BD204610BDA4
:103948000000000038B5074B05461C68E36B1BB93F
:103958002420FDF73DFDE063E16B2846BDE83840D3
:1039680000F002B8F40400202DE9F0410C4680462E
:1039780000F006FD21460746404600F005FD466971
:10398800044606F26C76B30705D1642296FBF2F37F
:1039980002FB13634BB94FF4C87596FBF5F305FBAF
:1039A8001365B5FA85F35B0900E001235F4A30250A
:1039B80005FB032500F018FB00F018FB5C4B1B68A7
:1039C800F3B17B689E4205D13968D8F80030FA69AE
:1039D80041B90AE0304600F05FFA0028F4D14FF010
:1039E800FF330DE0934208DB01E0934207DABA6B3C
:1039F8009342ACBF0023012302E0002300E001232F
:103A08002362236A3C20012B0CBFF96B396A4FF4FF
:103A1800616391FBF3F603FB161393FBF0F200FBD3
:103A2800123061682368891AA2681B1A921B3B2B03
:103A380023606160A26003DD013161603C3B04E00A
:103A4800002B03DA013961603C33236063683B2B48
:103A580003DD0132A2603C3B04E0002B03DA013AAB
:103A6800A2603C336360A368172B22DDE269183B30
:103A78000132E261A269A3600132062AC8BF0022AE
:103A8800A261E26823690132E26055F823108A4294
:103A980046DD01330C2B08BF6369A2EB0102E2602B
:103AA80005BF013300222361226104BF6361E26123
:103AB80036E0002B34DAE2691833013AE261A26990
:103AC800A360013A48BF0622A261E268013AE260B7
:103AD80032BB2369013B01D423611DE00B23236121
:103AE80063695A1E12F0030F626103F26B7305D10A
:103AF800642193FBF1F201FB12324AB94FF4C87109
:103B080093FBF1F201FB1233B3FA83F35B0900E094
:103B1800012303F5B673E361236955F82330E360A5
:103B280000F063FA2046BDE8F08100BFB44A0808F7
:103B3800B80C002010B5431E0A44914204D011F875
:103B4800014B03F8014FF8E710BD034602449342C6
:103B580002D003F8011BFAE77047000038B5124B92
:103B680005461C68A36BD3B91820FDF731FC43F256
:103B78000E33A06303804AF6CD33438041F23423E9
:103B880083804EF26D63C3804DF6EC630381052399
:103B980043810B23838101220023C0E90423A36B03
:103BA80000221D615A6138BDF404002010F8012B71
:103BB80011F8013B012A28BF9A42F7D0D01A704762
:103BC800034611F8012B03F8012B002AF9D170479D
:103BD800024B0146186800F003B800BFF404002047
:103BE80070B5064608460C4600F00DF8451C2946F7
:103BF8003046FDF725FC064618B12A462146FFF750
:103C080099FF304670BD034613F8012B002AFBD1FB
:103C1800181A0138704730B582B1451E013915F8B8
:103C2800013F11F8014FA34206D1EC431444E0428E
:103C380001D0002BF3D11C46181B30BD104630BDF7
:103C4800034610B542B111F8014B013A03F8014B94
:103C5800002CF7D11A4400E010BD934202D003F8BB
:103C6800014BFAE710BD00002DE9F0470F468046EA
:103C78003F48D0F800903D4615F8014B09EB040089
:103C8800407800F0080000F0FF0608B12F46F2E780
:103C98002D2C03D1BD1C7C78012603E02B2C04BFFE
:103CA8007C78BD1C13B1102B0AD15BE0302C57D1A6
:103CB800287800F0DF0058284DD16C7810230235A1
:103CC800002E14BF4FF0004C6FF0004CBCFBF3FA11
:103CD8000027384603FB1ACC09EB040E9EF801E0D6
:103CE8001EF0040F01D0303C0BE01EF0030E1BD079
:103CF800BEF1010F0CBF4FF0370E4FF0570ECEEB51
:103D08000404A34210DDB7F1FF3F0AD0504506D89E
:103D180001D1644503DC03FB0040012701E04FF0BB
:103D2800FF3715F8014BD7E77B1C0CD1002E4FF05D
:103D3800220314BF4FF000406FF00040C8F8003075
:103D48002AB9BDE8F08706B1404272B107B1691ED1
:103D58001160BDE8F0873024002BB1D10823AFE70C
:103D68000A23ADE7302CA3D0AAE7BDE8F08700BF4F
:103D78009004002013460A46014602480068FFF7EF
:103D880073BF00BFF40400202DE9F0470E468046BB
:103D98003B48D0F80090354615F8014B09EB040074
:103DA800407800F0080000F0FF0708B12E46F2E75F
:103DB8002D2C03D1B51C7478012703E02B2C04BFEC
:103DC8007478B51C13B1102B0AD153E0302C4FD1A5
:103DD800287800F0DF00582845D16C781023023588
:103DE8004FF0FF3CBCFBF3FC03FB0CFA00266FEA28
:103DF8000A0A304609EB040E9EF801E01EF0040F93
:103E080001D0303C0BE01EF0030E1AD0BEF1010FBA
:103E18000CBF4FF0370E4FF0570ECEEB0404A34201
:103E28000FDD002E08DB604506D801D1544503DCC0
:103E380003FB0040012601E04FF0FF3615F8014B67
:103E4800D8E7002E07DA2223C8F800304FF0FF30F9
:103E58002AB9BDE8F08707B1404272B106B1691EC0
:103E68001160BDE8F0873024002BB9D10823B7E7EB
:103E78000A23B5E7302CABD0B2E7BDE8F08700BF26
:103E88009004002013460A46014602480068FFF7DE
:103E98007BBF00BFF40400202DE9F74F044600F073
:103EA8006FFA40F2B1739C4240F3968040F26D1570
:103EB8006FF4F663E318A4F2B2729B1005FB0235A7
:103EC800A4F26D726FF0630392FBF3F36FF4C862B0
:103ED8002B44A5184FF4C87294FBF2F795FBF2F542
:103EE80002FB17471D44642394FBF3F6B7FA87FED9
:103EF800014603FB164600F13803019304F003035F
:103F080044604FEA5E1E00934FF0070C0B7A4A2B71
:103F18000ED14B69009AEC1802B906B927B93B2BA8
:103F2800D4BF0023012300E000232344013B3FE0EA
:103F3800442B02D14B692B443AE0009B2BB9002E4D
:103F48000CBFF0464FF0010800E0F046A946244BAC
:103F5800302202FB0838CC68A8F1040A0123A342E6
:103F680004DA5AF804BF0133D944F8E709F1040325
:103F780093FBFCFBCBEBCB0ACAEB030A4B69012C86
:103F8800B8BF0124B3EB0A0A0B6904F1804403F1BA
:103F9800FF3304F1FF3448BF0AF1070AC3EBC30338
:103FA80058F824405344A34201DB073BFBE74B444A
:103FB8008C690C4A02FB03430C6A234441F81C3FFA
:103FC800019B9942A2D1C369826B9342ACBF002383
:103FD80001230360012000E0002003B0BDE8F08F5A
:103FE800B44A08088051010070477047014B1868AF
:103FF80000F002B8F40400202DE9F04F8DB0074618
:1040080000F0BEF9B0490446384600F0B1F9AF4EA9
:10401800054660B9AE4BAF4A1860AF4B1860AF4B5E
:1040280030681A605A60FDF7DBF9356048E131689D
:1040380079B93068FDF7D4F92846FFF7E4FD411C4B
:104048003846FDF7FDF9306048B12946FFF7B8FD5D
:1040580005E0FFF7ABFD002800F03281E9E72B7897
:104068000AAE3A2B08BF013533469D4A9D4928467A
:10407800FDF7CEF9002840F323810A9BEF18EB5C8B
:104088002D2B03D101374FF0FF3503E02B2B08BF51
:10409800013701250DF1200A0DF11E0B4FF0000824
:1040A8000396CDF808A00196CDF800B0334607AACC
:1040B8008D493846ADF81E80ADF82080FDF7A8F987
:1040C800404540F3FD80BDF81E20BDF820303C215E
:1040D80001FB0233BDF81C204FF4616101FB023380
:1040E8005D437F4B25627D4DDFF808922B600A9B6C
:1040F8004A461F447B4933463846FDF789F940450F
:1041080008DC2B68226A6B60714B1A60724BC3F82B
:104118000080D5E00A9BC5F80490FD18FB5C2D2BA8
:1041280003D101354FF0FF3703E02B2B08BF0135D2
:1041380001270023ADF81C30ADF81E30ADF8203053
:104148000A930396CDF808A00196CDF800B033463F
:1041580007AA65492846FDF75BF9002804DC236AAD
:10416800A3F56163E3630EE0BDF81E20BDF82030BF
:104178003C2101FB0233BDF81C204FF4616101FBB7
:1041880002335F43E76327460A9B4FF000091D444B
:104198002B782C2B08BF013595F80080B8F14D0F0E
:1041A80026D10DF12603029309AB009303960196DD
:1041B80033460DF122024D492846FDF729F9032817
:1041C8007ED1BDF822104B1E0B2B79D8BDF82420C8
:1041D800531E042B74D8BDF82630062B70D887F8E8
:1041E8000880F9603A617B610A9B05EB03082AE0C5
:1041F800B8F14A0F06BF4346013544230A220BA9EA
:1042080028460593FFF73EFEDDF82C80ADF8260022
:104218004545059B14D14D23B9F1000F07D12372F1
:104228000323E36002232361C4F814900BE084F8AD
:1042380024300B23A3620123E3620023236302E0FB
:1042480080B23B7278610223ADF81C300023ADF8D0
:104258001E30ADF820300A9398F800302F2B0BD180
:104268000396CDF808A00196CDF800B0334607AA0A
:104278001F494046FDF7CCF8BDF81E20BDF8203098
:104288003C2101FB0233BDF81C204FF4616101FBA6
:104298000233BB610A9D09F10109B9F1020F4544D6
:1042A80007F11C077FF474AF6068FFF7F5FD226A19
:1042B800074B1A60E36B9B1A074A18BF0123136068
:1042C8000DB0BDE8F08F00BF144B0808B40C0020F7
:1042D800BC0C0020174B0808B80C0020F80400207C
:1042E800A70C00201B4B08083E4B08082A4B08085F
:1042F8003D4B08089C0C00202DE9F84F07468B46DB
:10430800904600F0D7F8194B1D689A463DB15C46B7
:10431800234613F8012B42B13D2A1C46F8D13846F2
:1043280000F0C9F80020BDE8F88FCBEB0404A946DB
:1043380059F8040B0028F2D022465946FFF76BFCC7
:1043480088B959F8043C1E191B5D3D2B0BD1DAF8CE
:1043580000303846ED1AAD10C8F8005000F0ABF840
:10436800701CBDE8F88F4D46E1E700BF400500200E
:1043780007B501AAFFF7C0FF03B05DF804FB000012
:1043880000487047000500200268464BF0B592FBD4
:10439800F3F403FB1422002ABCBF02F5A83202F58D
:1043A800C0724FF4616092FBF0F300FB13224FF0F0
:1043B8003C008B6092FBF0F300FB132204F52F24E2
:1043C800ACBF04F66C2404F66B244B600A60072328
:1043D800E21C92FBF3F3344DC3EBC30394FBF5F5F6
:1043E800D31A48F6AC6240F2B4578B612F4B304871
:1043F80003FB0544B4FBF2F2B4FBF7F3B4FBF0F0B3
:104408002244D21A48F69466131A40F26D12B3FB8E
:10441800F6F6B3FBF2F0B3FBF7F33444E31A02FB0E
:10442800103303EB830299240232B2FBF4F25443B3
:10443800A61C0524B6FBF4F40A2A34BF02266FF042
:10444800090616444FF4C87202FB05055F1C012ECD
:1044580098BF0135B3F5997FA7EB040702D3A3F5FD
:10446800997214E0820705D16424B0FBF4F204FBCE
:1044780012024AB94FF4C872B0FBF2F402FB1400FE
:10448800B0FA80F2520900E001223B331A44A5F247
:104498006C750023CA614D610E61CF600B620846DE
:1044A800F0BD00BF80510100B13A02004FC5FDFFC9
:1044B800B03A0200704770471D0008085D00080800
:1044C800890008088D000808000000004F6E0025CC
:1044D8007320533A25322E306625252C20513A2553
:1044E800322E306625252000466C617368696E6738
:1044F8000041542B4346554E3D31360D0A00526556
:1045080073657474696E6720696E2070726F677264
:104518006573730032352520646F6E65003530256C
:1045280020646F6E650037352520646F6E65004422
:104538006F6E65007B226163646574656374312204
:104548003A25692C2022616364657465637432229C
:104558003A25692C202274656D70223A25692C2031
:1045680022726573657473223A25697D00436F6D05
:10457800706163746F725F486F6F6B004E6F204499
:1045880061746100556269646F747320486F6F6B62
:1045980000526573706F6E73652052656365697646
:1045A80065640053746174650053657420566572C0
:1045B800626F7365204D6F646500436C6561726559
:1045C8006420566572626F7365204D6F6465005490
:1045D800696D65207A6F6E65206F666673657420F5
:1045E80025690054696D650046726F6D202573203A
:1045F800746F202573005374617465205472616E62
:10460800736974696F6E0057616974696E672066B3
:104618006F7220526573706F6E7365004552524F0A
:10462800525F5354415445202D205265736574746C
:10463800696E67005369676E616C005265736574D3
:10464800436F756E740054656D7065726174757230
:10465800650052656C656173650041436465746506
:104668006331004143646574656374320052657355
:1046780065742D4652414D00486172642D52657330
:1046880065740053656E642D4E6F770056657262CF
:104698006F73652D4D6F6465005365742D54696D96
:1046A800657A6F6E65004F666600556E6B6E6F7744
:1046B8006E004E6F6E6500576946690047534D009E
:1046C800554D54530043444D41004C544500494511
:1046D800454538303231353400302E333000000053
:1046E8000000000000000000D301080800000000DE
:1046F8000000000035150808B71508083715080820
:10470800F51508083D150808C515080861150808B5
:1047180085150808FCFFFFFF00000000AF1508081A
:1047280000000000000000003D16080843160808B5
:104738006B1608084F1608083F1608080000000006
:1047480000000000DD1B0808271C0808FF1B0808DC
:10475800DF1B0808071C08080F1C0808171C080896
:104768001F1C080800000000000000002F1D08089A
:10477800211D0808231D08086C6E00666E00636F13
:1047880064650064657461696C002530313075209A
:10479800005D20002564002C200028293A200020F4
:1047A8005B00636F6465203D200064657461696C1B
:1047B80073203D2000626175640053657269616C05
:1047C8000055534253657269616C310074797065A4
:1047D80000706172616D00636D6400696400686EE9
:1047E80064007374726D0066696C74006C766C009A
:1047F80061646448616E646C65720072656D6F76A1
:104808006548616E646C657200656E756D48616EB1
:10481800646C657273004A534F4E53747265616DD0
:104828004C6F6748616E646C657200617070006EF1
:104838006F6E6500747261636500696E666F0077FC
:1048480061726E006572726F720070616E696300EA
:10485800616C6C000000000000000000E91E080800
:10486800EB1E0808252B3033643A253032750025B5
:10487800592D256D2D25645425483A254D3A255343
:10488800257A0061736374696D650000000000009B
:10489800000000007122080895220808A1220808D3
:1048A800A11D08087D220808892208088322080813
:1048B8008F220808732208087722080800000000E1
:1048C80000000000492308088D230808672308080A
:1048D800A11D0808612308084B230808532308086A
:1048E800872308085B2308084523080853756E4D7D
:1048F8006F6E54756557656454687546726953617F
:10490800744A616E4665624D61724170724D61799B
:104918004A756E4A756C4175675365704F63744E7E
:104928006F76446563252E337320252E3373253324
:104938006420252E32643A252E32643A252E3264BC
:104948002025640A00002020202020202020202864
:10495800282828282020202020202020202020202F
:104968002020202020208810101010101010101067
:1049780010101010101004040404040404040404A7
:104988001010101010101041414141414101010126
:1049980001010101010101010101010101010101FF
:1049A800011010101010104242424242420202020C
:1049B80002020202020202020202020202020202CF
:1049C800021010101020000000000000000000007D
:1049D80000000000000000000000000000000000CF
:1049E80000000000000000000000000000000000BF
:1049F80000000000000000000000000000000000AF
:104A0800000000000000000000000000000000009E
:104A1800000000000000000000000000000000008E
:104A2800000000000000000000000000000000007E
:104A3800000000000000000000000000000000006E
:104A4800000000000000000000000000000000005E
:104A5800000000000000000000000000000000004E
:104A6800000000000000000000000000000000003E
:104A7800000000000000000000000000000000002E
:104A8800000000000000000000000000000000001E
:104A9800000000000000000000000000000000000E
:104AA8000000000000000000430000001F0000009C
:104AB8001C0000001F0000001E0000001F00000076
:104AC8001E0000001F0000001F0000001E00000064
:104AD8001F0000001E0000001F0000001F00000053
:104AE8001D0000001F0000001E0000001F00000045
:104AF8001E0000001F0000001F0000001E00000034
:104B08001F0000001E0000001F000000545A00474C
:104B18004D54002531305B5E302D392C2B2D5D2511
:104B28006E004D256875256E2E256875256E2E2517
:104B38006875256E002F256875256E3A25687525D8
:104B48006E3A256875256E0059010808E90E0808AF
:104B5800F9140808911D0808CD1E0808A92008089E
:104B68005D2208080D2708083D270808A927080816
:104B78006D280808F12808087529080800000000B1
:084B8800000000000000000025
:044B90000000000021
:104B940030750000496E697469616C697A6500005A
:104BA40000004572726F72000000000000000000F7
:104BB40049646C65000000000000000000005265BC
:104BC400706F7274696E6700000000005265737044
:104BD4006F6E73652057616974000000E146080830
:104BE40010270000E80300004E4100000000000010
:104BF4004E41000000000000C8AF0000B2460808A3
:104C0400BA460808BF460808C4460808C846080843
:104C1400CD460808D2460808D64608088B48080836
:104C24004D49080800000000504A0808704A080866
:104C3400904A080800000000000000000000000086
:104C440000000000B04A0808000000000000000056
:104C54000000000000000000000000000000000050
:104C64000000000000000000000000000000000040
:104C74000000000000000000000000000000000030
:104C84000000000094040020174B0808174B080884
:104C940001000000000000004A00000000000000C5
:104CA4000000000000000000000000000000000000
:104CB400000000004A0000000000000000000000A6
:104CC40000000000000000000000000000000000E0
:044CD400C00C0020F0
:104CD800FFFFFFFF00000102030405060708090A99
:104CE8000B0C0D0E0F101112131415161718191A94
:084CF8001B1C1D1E1F202800DB
:044D0000785634129B
:0400000508080018CF
:00000001FF
